{
  "_format": "hh-sol-artifact-1",
  "contractName": "Election",
  "sourceName": "contracts/election.sol",
  "abi": [
    {
      "inputs": [],
      "stateMutability": "nonpayable",
      "type": "constructor"
    },
    {
      "inputs": [
        {
          "internalType": "uint256",
          "name": "",
          "type": "uint256"
        }
      ],
      "name": "Ballots",
      "outputs": [
        {
          "internalType": "uint256",
          "name": "choiceCode",
          "type": "uint256"
        },
        {
          "internalType": "string",
          "name": "secretKey",
          "type": "string"
        },
        {
          "internalType": "string",
          "name": "signedVote",
          "type": "string"
        }
      ],
      "stateMutability": "view",
      "type": "function"
    },
    {
      "inputs": [
        {
          "internalType": "uint256",
          "name": "_choiceCode",
          "type": "uint256"
        },
        {
          "internalType": "string",
          "name": "_secretKey",
          "type": "string"
        },
        {
          "internalType": "string",
          "name": "_signedVote",
          "type": "string"
        }
      ],
      "name": "Vote",
      "outputs": [],
      "stateMutability": "nonpayable",
      "type": "function"
    },
    {
      "inputs": [
        {
          "internalType": "address",
          "name": "",
          "type": "address"
        }
      ],
      "name": "Voters",
      "outputs": [
        {
          "internalType": "address",
          "name": "voterAddress",
          "type": "address"
        },
        {
          "internalType": "string",
          "name": "name",
          "type": "string"
        },
        {
          "internalType": "string",
          "name": "phone",
          "type": "string"
        },
        {
          "internalType": "string",
          "name": "votingPassword",
          "type": "string"
        },
        {
          "internalType": "bool",
          "name": "eligible",
          "type": "bool"
        },
        {
          "internalType": "bool",
          "name": "isRegistered",
          "type": "bool"
        },
        {
          "internalType": "string",
          "name": "blindedVote",
          "type": "string"
        },
        {
          "internalType": "string",
          "name": "signedBlindedVote",
          "type": "string"
        }
      ],
      "stateMutability": "view",
      "type": "function"
    },
    {
      "inputs": [
        {
          "internalType": "string",
          "name": "_header",
          "type": "string"
        },
        {
          "internalType": "string",
          "name": "_slogan",
          "type": "string"
        }
      ],
      "name": "addCandidate",
      "outputs": [],
      "stateMutability": "nonpayable",
      "type": "function"
    },
    {
      "inputs": [],
      "name": "admin",
      "outputs": [
        {
          "internalType": "address",
          "name": "",
          "type": "address"
        }
      ],
      "stateMutability": "view",
      "type": "function"
    },
    {
      "inputs": [
        {
          "internalType": "string",
          "name": "",
          "type": "string"
        }
      ],
      "name": "blindedVotes",
      "outputs": [
        {
          "internalType": "address",
          "name": "",
          "type": "address"
        }
      ],
      "stateMutability": "view",
      "type": "function"
    },
    {
      "inputs": [
        {
          "internalType": "uint256",
          "name": "",
          "type": "uint256"
        }
      ],
      "name": "candidateDetails",
      "outputs": [
        {
          "internalType": "uint256",
          "name": "candidateId",
          "type": "uint256"
        },
        {
          "internalType": "string",
          "name": "name",
          "type": "string"
        },
        {
          "internalType": "string",
          "name": "slogan",
          "type": "string"
        },
        {
          "internalType": "uint256",
          "name": "voteCount",
          "type": "uint256"
        }
      ],
      "stateMutability": "view",
      "type": "function"
    },
    {
      "inputs": [],
      "name": "end",
      "outputs": [
        {
          "internalType": "bool",
          "name": "",
          "type": "bool"
        }
      ],
      "stateMutability": "view",
      "type": "function"
    },
    {
      "inputs": [],
      "name": "endElection",
      "outputs": [],
      "stateMutability": "nonpayable",
      "type": "function"
    },
    {
      "inputs": [],
      "name": "organizer",
      "outputs": [
        {
          "internalType": "address",
          "name": "organizerAddress",
          "type": "address"
        },
        {
          "internalType": "string",
          "name": "signiturePublicKey",
          "type": "string"
        }
      ],
      "stateMutability": "view",
      "type": "function"
    },
    {
      "inputs": [
        {
          "internalType": "string",
          "name": "_name",
          "type": "string"
        },
        {
          "internalType": "string",
          "name": "_phone",
          "type": "string"
        },
        {
          "internalType": "string",
          "name": "_votingPassword",
          "type": "string"
        }
      ],
      "name": "registerAsVoter",
      "outputs": [],
      "stateMutability": "nonpayable",
      "type": "function"
    },
    {
      "inputs": [
        {
          "internalType": "string",
          "name": "blindedVote",
          "type": "string"
        }
      ],
      "name": "requestBlindSig",
      "outputs": [],
      "stateMutability": "nonpayable",
      "type": "function"
    },
    {
      "inputs": [
        {
          "internalType": "string",
          "name": "_adminName",
          "type": "string"
        },
        {
          "internalType": "string",
          "name": "_adminEmail",
          "type": "string"
        },
        {
          "internalType": "string",
          "name": "_electionTitle",
          "type": "string"
        },
        {
          "internalType": "string",
          "name": "_organizationTitle",
          "type": "string"
        },
        {
          "internalType": "address",
          "name": "_organizerAddress",
          "type": "address"
        },
        {
          "internalType": "string",
          "name": "_signiturePublicKey",
          "type": "string"
        }
      ],
      "name": "setElectionDetails",
      "outputs": [],
      "stateMutability": "nonpayable",
      "type": "function"
    },
    {
      "inputs": [],
      "name": "start",
      "outputs": [
        {
          "internalType": "bool",
          "name": "",
          "type": "bool"
        }
      ],
      "stateMutability": "view",
      "type": "function"
    },
    {
      "inputs": [
        {
          "internalType": "string",
          "name": "",
          "type": "string"
        }
      ],
      "name": "usedSignatures",
      "outputs": [
        {
          "internalType": "bool",
          "name": "",
          "type": "bool"
        }
      ],
      "stateMutability": "view",
      "type": "function"
    },
    {
      "inputs": [
        {
          "internalType": "string",
          "name": "_signedVote",
          "type": "string"
        },
        {
          "internalType": "uint256",
          "name": "_choiceCode",
          "type": "uint256"
        }
      ],
      "name": "validBallots",
      "outputs": [],
      "stateMutability": "nonpayable",
      "type": "function"
    },
    {
      "inputs": [
        {
          "internalType": "bool",
          "name": "_verifedStatus",
          "type": "bool"
        },
        {
          "internalType": "address",
          "name": "voterAddress",
          "type": "address"
        }
      ],
      "name": "verifyVoter",
      "outputs": [],
      "stateMutability": "nonpayable",
      "type": "function"
    },
    {
      "inputs": [
        {
          "internalType": "address",
          "name": "_voter",
          "type": "address"
        },
        {
          "internalType": "string",
          "name": "blindSig",
          "type": "string"
        }
      ],
      "name": "writeBlindSig",
      "outputs": [],
      "stateMutability": "nonpayable",
      "type": "function"
    }
  ],
  "bytecode": "0x608060405234801561001057600080fd5b50600080546001600160a01b03191633179055611f05806100326000396000f3fe608060405234801561001057600080fd5b50600436106101165760003560e01c80636247e532116100a2578063ea09cdb611610071578063ea09cdb614610c96578063ef92bcab14610d3a578063efbe1c1c14610e3c578063f851a44014610e44578063fdedaa8a14610e4c57610116565b80636247e53214610a11578063a1c6cfbf14610b1a578063b4c2b80e14610bce578063be9a655514610c8e57610116565b8063252f5108116100e9578063252f51081461076a57806326541b5614610822578063506b8e0a1461094b57806359f7846814610979578063612032651461098157610116565b80630b54aec91461011b5780630ec74bf7146103e657806315b6e7391461048c5780631689a44c146105bc575b600080fd5b6103e4600480360360c081101561013157600080fd5b810190602081018135600160201b81111561014b57600080fd5b82018360208201111561015d57600080fd5b803590602001918460018302840111600160201b8311171561017e57600080fd5b91908080601f0160208091040260200160405190810160405280939291908181526020018383808284376000920191909152509295949360208101935035915050600160201b8111156101d057600080fd5b8201836020820111156101e257600080fd5b803590602001918460018302840111600160201b8311171561020357600080fd5b91908080601f0160208091040260200160405190810160405280939291908181526020018383808284376000920191909152509295949360208101935035915050600160201b81111561025557600080fd5b82018360208201111561026757600080fd5b803590602001918460018302840111600160201b8311171561028857600080fd5b91908080601f0160208091040260200160405190810160405280939291908181526020018383808284376000920191909152509295949360208101935035915050600160201b8111156102da57600080fd5b8201836020820111156102ec57600080fd5b803590602001918460018302840111600160201b8311171561030d57600080fd5b91908080601f01602080910402602001604051908101604052809392919081815260200183838082843760009201919091525092956001600160a01b03853516959094909350604081019250602001359050600160201b81111561037057600080fd5b82018360208201111561038257600080fd5b803590602001918460018302840111600160201b831117156103a357600080fd5b91908080601f0160208091040260200160405190810160405280939291908181526020018383808284376000920191909152509295506110a4945050505050565b005b6103e4600480360360408110156103fc57600080fd5b810190602081018135600160201b81111561041657600080fd5b82018360208201111561042857600080fd5b803590602001918460018302840111600160201b8311171561044957600080fd5b91908080601f0160208091040260200160405190810160405280939291908181526020018383808284376000920191909152509295505091359250611192915050565b6103e4600480360360608110156104a257600080fd5b81359190810190604081016020820135600160201b8111156104c357600080fd5b8201836020820111156104d557600080fd5b803590602001918460018302840111600160201b831117156104f657600080fd5b91908080601f0160208091040260200160405190810160405280939291908181526020018383808284376000920191909152509295949360208101935035915050600160201b81111561054857600080fd5b82018360208201111561055a57600080fd5b803590602001918460018302840111600160201b8311171561057b57600080fd5b91908080601f016020809104026020016040519081016040528093929190818152602001838380828437600092019190915250929550611340945050505050565b6103e4600480360360608110156105d257600080fd5b810190602081018135600160201b8111156105ec57600080fd5b8201836020820111156105fe57600080fd5b803590602001918460018302840111600160201b8311171561061f57600080fd5b91908080601f0160208091040260200160405190810160405280939291908181526020018383808284376000920191909152509295949360208101935035915050600160201b81111561067157600080fd5b82018360208201111561068357600080fd5b803590602001918460018302840111600160201b831117156106a457600080fd5b91908080601f0160208091040260200160405190810160405280939291908181526020018383808284376000920191909152509295949360208101935035915050600160201b8111156106f657600080fd5b82018360208201111561070857600080fd5b803590602001918460018302840111600160201b8311171561072957600080fd5b91908080601f0160208091040260200160405190810160405280939291908181526020018383808284376000920191909152509295506113b8945050505050565b61080e6004803603602081101561078057600080fd5b810190602081018135600160201b81111561079a57600080fd5b8201836020820111156107ac57600080fd5b803590602001918460018302840111600160201b831117156107cd57600080fd5b91908080601f0160208091040260200160405190810160405280939291908181526020018383808284376000920191909152509295506114f6945050505050565b604080519115158252519081900360200190f35b6103e46004803603604081101561083857600080fd5b810190602081018135600160201b81111561085257600080fd5b82018360208201111561086457600080fd5b803590602001918460018302840111600160201b8311171561088557600080fd5b91908080601f0160208091040260200160405190810160405280939291908181526020018383808284376000920191909152509295949360208101935035915050600160201b8111156108d757600080fd5b8201836020820111156108e957600080fd5b803590602001918460018302840111600160201b8311171561090a57600080fd5b91908080601f016020809104026020016040519081016040528093929190818152602001838380828437600092019190915250929550611516945050505050565b6103e46004803603604081101561096157600080fd5b508035151590602001356001600160a01b03166115bd565b6103e46115ff565b61098961162d565b60405180836001600160a01b0316815260200180602001828103825283818151815260200191508051906020019080838360005b838110156109d55781810151838201526020016109bd565b50505050905090810190601f168015610a025780820380516001836020036101000a031916815260200191505b50935050505060405180910390f35b610a2e60048036036020811015610a2757600080fd5b50356116ca565b604051808581526020018060200180602001848152602001838103835286818151815260200191508051906020019080838360005b83811015610a7b578181015183820152602001610a63565b50505050905090810190601f168015610aa85780820380516001836020036101000a031916815260200191505b50838103825285518152855160209182019187019080838360005b83811015610adb578181015183820152602001610ac3565b50505050905090810190601f168015610b085780820380516001836020036101000a031916815260200191505b50965050505050505060405180910390f35b6103e460048036036040811015610b3057600080fd5b6001600160a01b038235169190810190604081016020820135600160201b811115610b5a57600080fd5b820183602082011115610b6c57600080fd5b803590602001918460018302840111600160201b83111715610b8d57600080fd5b91908080601f016020809104026020016040519081016040528093929190818152602001838380828437600092019190915250929550611809945050505050565b610c7260048036036020811015610be457600080fd5b810190602081018135600160201b811115610bfe57600080fd5b820183602082011115610c1057600080fd5b803590602001918460018302840111600160201b83111715610c3157600080fd5b91908080601f016020809104026020016040519081016040528093929190818152602001838380828437600092019190915250929550611875945050505050565b604080516001600160a01b039092168252519081900360200190f35b61080e61189b565b6103e460048036036020811015610cac57600080fd5b810190602081018135600160201b811115610cc657600080fd5b820183602082011115610cd857600080fd5b803590602001918460018302840111600160201b83111715610cf957600080fd5b91908080601f0160208091040260200160405190810160405280939291908181526020018383808284376000920191909152509295506118a4945050505050565b610d5760048036036020811015610d5057600080fd5b5035611945565b604051808481526020018060200180602001838103835285818151815260200191508051906020019080838360005b83811015610d9e578181015183820152602001610d86565b50505050905090810190601f168015610dcb5780820380516001836020036101000a031916815260200191505b50838103825284518152845160209182019186019080838360005b83811015610dfe578181015183820152602001610de6565b50505050905090810190601f168015610e2b5780820380516001836020036101000a031916815260200191505b509550505050505060405180910390f35b61080e611a7e565b610c72611a8c565b610e7260048036036020811015610e6257600080fd5b50356001600160a01b0316611a9b565b60405180896001600160a01b0316815260200180602001806020018060200188151581526020018715158152602001806020018060200186810386528d818151815260200191508051906020019080838360005b83811015610ede578181015183820152602001610ec6565b50505050905090810190601f168015610f0b5780820380516001836020036101000a031916815260200191505b5086810385528c5181528c516020918201918e019080838360005b83811015610f3e578181015183820152602001610f26565b50505050905090810190601f168015610f6b5780820380516001836020036101000a031916815260200191505b5086810384528b5181528b516020918201918d019080838360005b83811015610f9e578181015183820152602001610f86565b50505050905090810190601f168015610fcb5780820380516001836020036101000a031916815260200191505b5086810383528851815288516020918201918a019080838360005b83811015610ffe578181015183820152602001610fe6565b50505050905090810190601f16801561102b5780820380516001836020036101000a031916815260200191505b50868103825287518152875160209182019189019080838360005b8381101561105e578181015183820152602001611046565b50505050905090810190601f16801561108b5780820380516001836020036101000a031916815260200191505b509d505050505050505050505050505060405180910390f35b6000546001600160a01b031633146110bb57600080fd5b6040805160808101825287815260208082018890529181018690526060810185905287519091600a916110f3918391908b0190611da1565b50602082810151805161110c9260018501920190611da1565b5060408201518051611128916002840191602090910190611da1565b5060608201518051611144916003840191602090910190611da1565b5050600180546001600160a01b0319166001600160a01b038516179055508051611175906002906020840190611da1565b5050600e805461ff001960ff199091166001171690555050505050565b6001546001600160a01b031633146111a957600080fd5b6008826040518082805190602001908083835b602083106111db5780518252601f1990920191602091820191016111bc565b51815160209384036101000a600019018019909216911617905292019485525060405193849003019092205460ff161591506112609050576040805162461bcd60e51b815260206004820152601c60248201527f54686973207369676e617475726520686173206265656e207573656400000000604482015290519081900360640190fd5b600e54610100900460ff16156112b4576040805162461bcd60e51b8152602060048201526014602482015273159bdd19481a5cc81b9bdd08199a5b9a5cda195960621b604482015290519081900360640190fd5b60016008836040518082805190602001908083835b602083106112e85780518252601f1990920191602091820191016112c9565b51815160209384036101000a600019018019909216911617905292019485525060408051948590038201909420805460ff19169515159590951790945550506000928352600590915290206003018054600101905550565b611348611e1f565b50604080516060810182528481526020808201858152828401859052600454600090815260098352939093208251815592518051929384939092611393926001850192910190611da1565b50604082015180516113af916002840191602090910190611da1565b50505050505050565b6113c0611e40565b50604080516101008101825233808252602080830187815283850187905260608401869052600060808501819052600160a086018190528651808501885282815260c08701528651808501885282815260e08701529381526006835294909420835181546001600160a01b0319166001600160a01b039091161781559351805193948594909361145593908501920190611da1565b5060408201518051611471916002840191602090910190611da1565b506060820151805161148d916003840191602090910190611da1565b50608082015160048201805460a085015115156101000261ff001993151560ff19909216919091179290921691909117905560c082015180516114da916005840191602090910190611da1565b5060e082015180516113af916006840191602090910190611da1565b805160208183018101805160088252928201919093012091525460ff1681565b6000546001600160a01b0316331461152d57600080fd5b611535611e92565b5060408051608081018252600354808252602080830186815283850186905260006060850181905292835260058252939091208251815592518051929384939092611587926001850192910190611da1565b50604082015180516115a3916002840191602090910190611da1565b506060919091015160039182015580546001019055505050565b6001546001600160a01b031633146115d457600080fd5b6001600160a01b03166000908152600660205260409020600401805460ff1916911515919091179055565b6000546001600160a01b0316331461161657600080fd5b600e805460ff1961ff001990911661010017169055565b6001805460028054604080516020610100848816150260001901909316849004601f81018490048402820184019092528181526001600160a01b03909416949392918301828280156116c05780601f10611695576101008083540402835291602001916116c0565b820191906000526020600020905b8154815290600101906020018083116116a357829003601f168201915b5050505050905082565b6005602090815260009182526040918290208054600180830180548651600293821615610100026000190190911692909204601f8101869004860283018601909652858252919492939092908301828280156117675780601f1061173c57610100808354040283529160200191611767565b820191906000526020600020905b81548152906001019060200180831161174a57829003601f168201915b50505060028085018054604080516020601f60001961010060018716150201909416959095049283018590048502810185019091528181529596959450909250908301828280156117f95780601f106117ce576101008083540402835291602001916117f9565b820191906000526020600020905b8154815290600101906020018083116117dc57829003601f168201915b5050505050908060030154905084565b6001546001600160a01b0316331461182057600080fd5b6001600160a01b0382166000908152600660208181526040909220835161184f93919092019190840190611da1565b50506001600160a01b03166000908152600660205260409020600401805460ff19169055565b80516020818301810180516007825292820191909301209152546001600160a01b031681565b600e5460ff1681565b3360009081526006602052604090206004015460ff166118c357600080fd5b336007826040518082805190602001908083835b602083106118f65780518252601f1990920191602091820191016118d7565b51815160209384036101000a6000190180199092169116179052920194855250604051938490030190922080546001600160a01b0319166001600160a01b039490941693909317909255505050565b6009602090815260009182526040918290208054600180830180548651600293821615610100026000190190911692909204601f8101869004860283018601909652858252919492939092908301828280156119e25780601f106119b7576101008083540402835291602001916119e2565b820191906000526020600020905b8154815290600101906020018083116119c557829003601f168201915b50505060028085018054604080516020601f6000196101006001871615020190941695909504928301859004850281018501909152818152959695945090925090830182828015611a745780601f10611a4957610100808354040283529160200191611a74565b820191906000526020600020905b815481529060010190602001808311611a5757829003601f168201915b5050505050905083565b600e54610100900460ff1681565b6000546001600160a01b031681565b6006602090815260009182526040918290208054600180830180548651600261010094831615949094026000190190911692909204601f81018690048602830186019096528582526001600160a01b03909216949293909290830182828015611b455780601f10611b1a57610100808354040283529160200191611b45565b820191906000526020600020905b815481529060010190602001808311611b2857829003601f168201915b50505060028085018054604080516020601f6000196101006001871615020190941695909504928301859004850281018501909152818152959695945090925090830182828015611bd75780601f10611bac57610100808354040283529160200191611bd7565b820191906000526020600020905b815481529060010190602001808311611bba57829003601f168201915b5050505060038301805460408051602060026001851615610100026000190190941693909304601f8101849004840282018401909252818152949594935090830182828015611c675780601f10611c3c57610100808354040283529160200191611c67565b820191906000526020600020905b815481529060010190602001808311611c4a57829003601f168201915b5050505060048301546005840180546040805160206002610100600186161581026000190190951604601f8101829004820283018201909352828252969760ff808716989490960490951695509291830182828015611d075780601f10611cdc57610100808354040283529160200191611d07565b820191906000526020600020905b815481529060010190602001808311611cea57829003601f168201915b5050505060068301805460408051602060026001851615610100026000190190941693909304601f8101849004840282018401909252818152949594935090830182828015611d975780601f10611d6c57610100808354040283529160200191611d97565b820191906000526020600020905b815481529060010190602001808311611d7a57829003601f168201915b5050505050905088565b828054600181600116156101000203166002900490600052602060002090601f016020900481019282601f10611de257805160ff1916838001178555611e0f565b82800160010185558215611e0f579182015b82811115611e0f578251825591602001919060010190611df4565b50611e1b929150611eba565b5090565b60405180606001604052806000815260200160608152602001606081525090565b60405180610100016040528060006001600160a01b0316815260200160608152602001606081526020016060815260200160001515815260200160001515815260200160608152602001606081525090565b6040518060800160405280600081526020016060815260200160608152602001600081525090565b5b80821115611e1b5760008155600101611ebb56fea2646970667358221220faeedd004ed47f59ac1158399e1297642485b6d5f4469ef84f0818ee0d82427864736f6c63430007000033",
  "linkReferences": {},
  "deployedLinkReferences": {}
}