{
  "_format": "hh-sol-artifact-1",
  "contractName": "Election",
  "sourceName": "contracts/election.sol",
  "abi": [
    {
      "inputs": [],
      "stateMutability": "nonpayable",
      "type": "constructor"
    },
    {
      "inputs": [
        {
          "internalType": "uint256",
          "name": "",
          "type": "uint256"
        }
      ],
      "name": "Ballots",
      "outputs": [
        {
          "internalType": "uint256",
          "name": "choiceCode",
          "type": "uint256"
        },
        {
          "internalType": "string",
          "name": "secretKey",
          "type": "string"
        },
        {
          "internalType": "string",
          "name": "signedVote",
          "type": "string"
        }
      ],
      "stateMutability": "view",
      "type": "function"
    },
    {
      "inputs": [
        {
          "internalType": "address",
          "name": "",
          "type": "address"
        }
      ],
      "name": "Voters",
      "outputs": [
        {
          "internalType": "address",
          "name": "voterAddress",
          "type": "address"
        },
        {
          "internalType": "string",
          "name": "name",
          "type": "string"
        },
        {
          "internalType": "string",
          "name": "phone",
          "type": "string"
        },
        {
          "internalType": "string",
          "name": "votingPassword",
          "type": "string"
        },
        {
          "internalType": "bool",
          "name": "eligible",
          "type": "bool"
        },
        {
          "internalType": "bool",
          "name": "hasVoted",
          "type": "bool"
        },
        {
          "internalType": "bool",
          "name": "isRegistered",
          "type": "bool"
        },
        {
          "internalType": "string",
          "name": "blindedVote",
          "type": "string"
        },
        {
          "internalType": "string",
          "name": "signedBlindedVote",
          "type": "string"
        }
      ],
      "stateMutability": "view",
      "type": "function"
    },
    {
      "inputs": [
        {
          "internalType": "string",
          "name": "_header",
          "type": "string"
        },
        {
          "internalType": "string",
          "name": "_slogan",
          "type": "string"
        }
      ],
      "name": "addCandidate",
      "outputs": [],
      "stateMutability": "nonpayable",
      "type": "function"
    },
    {
      "inputs": [],
      "name": "admin",
      "outputs": [
        {
          "internalType": "address",
          "name": "",
          "type": "address"
        }
      ],
      "stateMutability": "view",
      "type": "function"
    },
    {
      "inputs": [
        {
          "internalType": "string",
          "name": "",
          "type": "string"
        }
      ],
      "name": "blindedVotes",
      "outputs": [
        {
          "internalType": "address",
          "name": "",
          "type": "address"
        }
      ],
      "stateMutability": "view",
      "type": "function"
    },
    {
      "inputs": [],
      "name": "candidateCount",
      "outputs": [
        {
          "internalType": "uint256",
          "name": "",
          "type": "uint256"
        }
      ],
      "stateMutability": "view",
      "type": "function"
    },
    {
      "inputs": [
        {
          "internalType": "uint256",
          "name": "",
          "type": "uint256"
        }
      ],
      "name": "candidateDetails",
      "outputs": [
        {
          "internalType": "uint256",
          "name": "candidateId",
          "type": "uint256"
        },
        {
          "internalType": "string",
          "name": "name",
          "type": "string"
        },
        {
          "internalType": "string",
          "name": "slogan",
          "type": "string"
        },
        {
          "internalType": "uint256",
          "name": "voteCount",
          "type": "uint256"
        }
      ],
      "stateMutability": "view",
      "type": "function"
    },
    {
      "inputs": [],
      "name": "electionDetails",
      "outputs": [
        {
          "internalType": "string",
          "name": "adminName",
          "type": "string"
        },
        {
          "internalType": "string",
          "name": "adminEmail",
          "type": "string"
        },
        {
          "internalType": "string",
          "name": "adminTitle",
          "type": "string"
        },
        {
          "internalType": "string",
          "name": "electionTitle",
          "type": "string"
        },
        {
          "internalType": "string",
          "name": "organizationTitle",
          "type": "string"
        }
      ],
      "stateMutability": "view",
      "type": "function"
    },
    {
      "inputs": [],
      "name": "end",
      "outputs": [
        {
          "internalType": "bool",
          "name": "",
          "type": "bool"
        }
      ],
      "stateMutability": "view",
      "type": "function"
    },
    {
      "inputs": [],
      "name": "endElection",
      "outputs": [],
      "stateMutability": "nonpayable",
      "type": "function"
    },
    {
      "inputs": [],
      "name": "getAdmin",
      "outputs": [
        {
          "internalType": "address",
          "name": "",
          "type": "address"
        }
      ],
      "stateMutability": "view",
      "type": "function"
    },
    {
      "inputs": [],
      "name": "getAdminEmail",
      "outputs": [
        {
          "internalType": "string",
          "name": "",
          "type": "string"
        }
      ],
      "stateMutability": "view",
      "type": "function"
    },
    {
      "inputs": [],
      "name": "getAdminName",
      "outputs": [
        {
          "internalType": "string",
          "name": "",
          "type": "string"
        }
      ],
      "stateMutability": "view",
      "type": "function"
    },
    {
      "inputs": [],
      "name": "getAdminTitle",
      "outputs": [
        {
          "internalType": "string",
          "name": "",
          "type": "string"
        }
      ],
      "stateMutability": "view",
      "type": "function"
    },
    {
      "inputs": [],
      "name": "getElectionTitle",
      "outputs": [
        {
          "internalType": "string",
          "name": "",
          "type": "string"
        }
      ],
      "stateMutability": "view",
      "type": "function"
    },
    {
      "inputs": [],
      "name": "getEnd",
      "outputs": [
        {
          "internalType": "bool",
          "name": "",
          "type": "bool"
        }
      ],
      "stateMutability": "view",
      "type": "function"
    },
    {
      "inputs": [],
      "name": "getOrganizationTitle",
      "outputs": [
        {
          "internalType": "string",
          "name": "",
          "type": "string"
        }
      ],
      "stateMutability": "view",
      "type": "function"
    },
    {
      "inputs": [],
      "name": "getOrganizerAddress",
      "outputs": [
        {
          "internalType": "address",
          "name": "",
          "type": "address"
        }
      ],
      "stateMutability": "view",
      "type": "function"
    },
    {
      "inputs": [],
      "name": "getOrganizerSigniturePublicKey",
      "outputs": [
        {
          "internalType": "string",
          "name": "",
          "type": "string"
        }
      ],
      "stateMutability": "view",
      "type": "function"
    },
    {
      "inputs": [],
      "name": "getStart",
      "outputs": [
        {
          "internalType": "bool",
          "name": "",
          "type": "bool"
        }
      ],
      "stateMutability": "view",
      "type": "function"
    },
    {
      "inputs": [],
      "name": "getTotalCandidate",
      "outputs": [
        {
          "internalType": "uint256",
          "name": "",
          "type": "uint256"
        }
      ],
      "stateMutability": "view",
      "type": "function"
    },
    {
      "inputs": [],
      "name": "getTotalVoter",
      "outputs": [
        {
          "internalType": "uint256",
          "name": "",
          "type": "uint256"
        }
      ],
      "stateMutability": "view",
      "type": "function"
    },
    {
      "inputs": [],
      "name": "organizer",
      "outputs": [
        {
          "internalType": "address",
          "name": "organizerAddress",
          "type": "address"
        },
        {
          "internalType": "string",
          "name": "signiturePublicKey",
          "type": "string"
        }
      ],
      "stateMutability": "view",
      "type": "function"
    },
    {
      "inputs": [
        {
          "internalType": "string",
          "name": "_name",
          "type": "string"
        },
        {
          "internalType": "string",
          "name": "_phone",
          "type": "string"
        },
        {
          "internalType": "string",
          "name": "_votingPassword",
          "type": "string"
        }
      ],
      "name": "registerAsVoter",
      "outputs": [],
      "stateMutability": "nonpayable",
      "type": "function"
    },
    {
      "inputs": [
        {
          "internalType": "string",
          "name": "_blindedVote",
          "type": "string"
        }
      ],
      "name": "requestBlindSig",
      "outputs": [],
      "stateMutability": "nonpayable",
      "type": "function"
    },
    {
      "inputs": [
        {
          "internalType": "string",
          "name": "_adminName",
          "type": "string"
        },
        {
          "internalType": "string",
          "name": "_adminEmail",
          "type": "string"
        },
        {
          "internalType": "string",
          "name": "_adminTitle",
          "type": "string"
        },
        {
          "internalType": "string",
          "name": "_electionTitle",
          "type": "string"
        },
        {
          "internalType": "string",
          "name": "_organizationTitle",
          "type": "string"
        },
        {
          "internalType": "address",
          "name": "_organizerAddress",
          "type": "address"
        }
      ],
      "name": "setElectionDetails",
      "outputs": [],
      "stateMutability": "nonpayable",
      "type": "function"
    },
    {
      "inputs": [
        {
          "internalType": "string",
          "name": "_publicKey",
          "type": "string"
        }
      ],
      "name": "setSigniturePublicKey",
      "outputs": [],
      "stateMutability": "nonpayable",
      "type": "function"
    },
    {
      "inputs": [
        {
          "internalType": "string",
          "name": "_sig",
          "type": "string"
        }
      ],
      "name": "signitureIsUsed",
      "outputs": [
        {
          "internalType": "bool",
          "name": "",
          "type": "bool"
        }
      ],
      "stateMutability": "view",
      "type": "function"
    },
    {
      "inputs": [],
      "name": "start",
      "outputs": [
        {
          "internalType": "bool",
          "name": "",
          "type": "bool"
        }
      ],
      "stateMutability": "view",
      "type": "function"
    },
    {
      "inputs": [
        {
          "internalType": "string",
          "name": "",
          "type": "string"
        }
      ],
      "name": "usedSignatures",
      "outputs": [
        {
          "internalType": "bool",
          "name": "",
          "type": "bool"
        }
      ],
      "stateMutability": "view",
      "type": "function"
    },
    {
      "inputs": [
        {
          "internalType": "string",
          "name": "_signedVote",
          "type": "string"
        },
        {
          "internalType": "uint256",
          "name": "_choiceCode",
          "type": "uint256"
        }
      ],
      "name": "validBallots",
      "outputs": [],
      "stateMutability": "nonpayable",
      "type": "function"
    },
    {
      "inputs": [
        {
          "internalType": "bool",
          "name": "_verifedStatus",
          "type": "bool"
        },
        {
          "internalType": "address",
          "name": "voterAddress",
          "type": "address"
        }
      ],
      "name": "verifyVoter",
      "outputs": [],
      "stateMutability": "nonpayable",
      "type": "function"
    },
    {
      "inputs": [
        {
          "internalType": "uint256",
          "name": "_choiceCode",
          "type": "uint256"
        },
        {
          "internalType": "string",
          "name": "_secretKey",
          "type": "string"
        },
        {
          "internalType": "string",
          "name": "_signedVote",
          "type": "string"
        }
      ],
      "name": "vote",
      "outputs": [],
      "stateMutability": "nonpayable",
      "type": "function"
    },
    {
      "inputs": [
        {
          "internalType": "uint256",
          "name": "",
          "type": "uint256"
        }
      ],
      "name": "voters",
      "outputs": [
        {
          "internalType": "address",
          "name": "",
          "type": "address"
        }
      ],
      "stateMutability": "view",
      "type": "function"
    },
    {
      "inputs": [
        {
          "internalType": "address",
          "name": "_voter",
          "type": "address"
        },
        {
          "internalType": "string",
          "name": "blindSig",
          "type": "string"
        }
      ],
      "name": "writeBlindSig",
      "outputs": [],
      "stateMutability": "nonpayable",
      "type": "function"
    }
  ],
  "bytecode": "0x608060405234801561001057600080fd5b50600080546001600160a01b03191633179055612ccb806100326000396000f3fe608060405234801561001057600080fd5b50600436106102115760003560e01c8063831318f111610125578063be9a6555116100ad578063ea09cdb61161007c578063ea09cdb6146111f7578063ef92bcab1461129b578063efbe1c1c1461139d578063f851a440146113a5578063fdedaa8a146113ad57610211565b8063be9a6555146111c2578063c5292c67146111ca578063da58c7d9146111d2578063e173730c146111ef57610211565b8063a5327424116100f4578063a532742414610d1b578063a9a981a314610fde578063b108475914610fe6578063b4c2b80e14611116578063be081b6f146111ba57610211565b8063831318f114610c4f57806397d41b3514610c575780639f05a36d14610c5f578063a1c6cfbf14610c6757610211565b8063506b8e0a116101a857806364d198a11161017757806364d198a11461095f5780636d2f6966146109675780636e9960c314610b7f5780637be9857214610ba35780637ffbd1b214610bab57610211565b8063506b8e0a1461079057806359f78468146107be57806361203265146107c65780636247e5321461085657610211565b80631b9f4833116101e45780631b9f483314610503578063252f5108146105bb57806326541b561461065f578063483431751461078857610211565b80630b93400e146102165780630e2354cf146102305780630ec74bf7146102ad5780631689a44c14610355575b600080fd5b61021e61160e565b60408051918252519081900360200190f35b610238611614565b6040805160208082528351818301528351919283929083019185019080838360005b8381101561027257818101518382015260200161025a565b50505050905090810190601f16801561029f5780820380516001836020036101000a031916815260200191505b509250505060405180910390f35b610353600480360360408110156102c357600080fd5b810190602081018135600160201b8111156102dd57600080fd5b8201836020820111156102ef57600080fd5b803590602001918460018302840111600160201b8311171561031057600080fd5b91908080601f01602080910402602001604051908101604052809392919081815260200183838082843760009201919091525092955050913592506116aa915050565b005b6103536004803603606081101561036b57600080fd5b810190602081018135600160201b81111561038557600080fd5b82018360208201111561039757600080fd5b803590602001918460018302840111600160201b831117156103b857600080fd5b91908080601f0160208091040260200160405190810160405280939291908181526020018383808284376000920191909152509295949360208101935035915050600160201b81111561040a57600080fd5b82018360208201111561041c57600080fd5b803590602001918460018302840111600160201b8311171561043d57600080fd5b91908080601f0160208091040260200160405190810160405280939291908181526020018383808284376000920191909152509295949360208101935035915050600160201b81111561048f57600080fd5b8201836020820111156104a157600080fd5b803590602001918460018302840111600160201b831117156104c257600080fd5b91908080601f01602080910402602001604051908101604052809392919081815260200183838082843760009201919091525092955061189a945050505050565b6105a76004803603602081101561051957600080fd5b810190602081018135600160201b81111561053357600080fd5b82018360208201111561054557600080fd5b803590602001918460018302840111600160201b8311171561056657600080fd5b91908080601f016020809104026020016040519081016040528093929190818152602001838380828437600092019190915250929550611a4d945050505050565b604080519115158252519081900360200190f35b6105a7600480360360208110156105d157600080fd5b810190602081018135600160201b8111156105eb57600080fd5b8201836020820111156105fd57600080fd5b803590602001918460018302840111600160201b8311171561061e57600080fd5b91908080601f016020809104026020016040519081016040528093929190818152602001838380828437600092019190915250929550611ab8945050505050565b6103536004803603604081101561067557600080fd5b810190602081018135600160201b81111561068f57600080fd5b8201836020820111156106a157600080fd5b803590602001918460018302840111600160201b831117156106c257600080fd5b91908080601f0160208091040260200160405190810160405280939291908181526020018383808284376000920191909152509295949360208101935035915050600160201b81111561071457600080fd5b82018360208201111561072657600080fd5b803590602001918460018302840111600160201b8311171561074757600080fd5b91908080601f016020809104026020016040519081016040528093929190818152602001838380828437600092019190915250929550611ad8945050505050565b610238611bbd565b610353600480360360408110156107a657600080fd5b508035151590602001356001600160a01b0316611c1e565b610353611ca2565b6107ce611d0e565b60405180836001600160a01b0316815260200180602001828103825283818151815260200191508051906020019080838360005b8381101561081a578181015183820152602001610802565b50505050905090810190601f1680156108475780820380516001836020036101000a031916815260200191505b50935050505060405180910390f35b6108736004803603602081101561086c57600080fd5b5035611dab565b604051808581526020018060200180602001848152602001838103835286818151815260200191508051906020019080838360005b838110156108c05781810151838201526020016108a8565b50505050905090810190601f1680156108ed5780820380516001836020036101000a031916815260200191505b50838103825285518152855160209182019187019080838360005b83811015610920578181015183820152602001610908565b50505050905090810190601f16801561094d5780820380516001836020036101000a031916815260200191505b50965050505050505060405180910390f35b61021e611eea565b61096f611ef0565b60405180806020018060200180602001806020018060200186810386528b818151815260200191508051906020019080838360005b838110156109bc5781810151838201526020016109a4565b50505050905090810190601f1680156109e95780820380516001836020036101000a031916815260200191505b5086810385528a5181528a516020918201918c019080838360005b83811015610a1c578181015183820152602001610a04565b50505050905090810190601f168015610a495780820380516001836020036101000a031916815260200191505b5086810384528951815289516020918201918b019080838360005b83811015610a7c578181015183820152602001610a64565b50505050905090810190601f168015610aa95780820380516001836020036101000a031916815260200191505b5086810383528851815288516020918201918a019080838360005b83811015610adc578181015183820152602001610ac4565b50505050905090810190601f168015610b095780820380516001836020036101000a031916815260200191505b50868103825287518152875160209182019189019080838360005b83811015610b3c578181015183820152602001610b24565b50505050905090810190601f168015610b695780820380516001836020036101000a031916815260200191505b509a505050505050505050505060405180910390f35b610b876121d2565b604080516001600160a01b039092168252519081900360200190f35b6102386121e1565b61035360048036036020811015610bc157600080fd5b810190602081018135600160201b811115610bdb57600080fd5b820183602082011115610bed57600080fd5b803590602001918460018302840111600160201b83111715610c0e57600080fd5b91908080601f01602080910402602001604051908101604052809392919081815260200183838082843760009201919091525092955061223f945050505050565b6102386122af565b610b87612310565b6105a761231f565b61035360048036036040811015610c7d57600080fd5b6001600160a01b038235169190810190604081016020820135600160201b811115610ca757600080fd5b820183602082011115610cb957600080fd5b803590602001918460018302840111600160201b83111715610cda57600080fd5b91908080601f01602080910402602001604051908101604052809392919081815260200183838082843760009201919091525092955061232d945050505050565b610353600480360360c0811015610d3157600080fd5b810190602081018135600160201b811115610d4b57600080fd5b820183602082011115610d5d57600080fd5b803590602001918460018302840111600160201b83111715610d7e57600080fd5b91908080601f0160208091040260200160405190810160405280939291908181526020018383808284376000920191909152509295949360208101935035915050600160201b811115610dd057600080fd5b820183602082011115610de257600080fd5b803590602001918460018302840111600160201b83111715610e0357600080fd5b91908080601f0160208091040260200160405190810160405280939291908181526020018383808284376000920191909152509295949360208101935035915050600160201b811115610e5557600080fd5b820183602082011115610e6757600080fd5b803590602001918460018302840111600160201b83111715610e8857600080fd5b91908080601f0160208091040260200160405190810160405280939291908181526020018383808284376000920191909152509295949360208101935035915050600160201b811115610eda57600080fd5b820183602082011115610eec57600080fd5b803590602001918460018302840111600160201b83111715610f0d57600080fd5b91908080601f0160208091040260200160405190810160405280939291908181526020018383808284376000920191909152509295949360208101935035915050600160201b811115610f5f57600080fd5b820183602082011115610f7157600080fd5b803590602001918460018302840111600160201b83111715610f9257600080fd5b91908080601f016020809104026020016040519081016040528093929190818152602001838380828437600092019190915250929550505090356001600160a01b031691506123ba9050565b61021e6124f7565b61035360048036036060811015610ffc57600080fd5b81359190810190604081016020820135600160201b81111561101d57600080fd5b82018360208201111561102f57600080fd5b803590602001918460018302840111600160201b8311171561105057600080fd5b91908080601f0160208091040260200160405190810160405280939291908181526020018383808284376000920191909152509295949360208101935035915050600160201b8111156110a257600080fd5b8201836020820111156110b457600080fd5b803590602001918460018302840111600160201b831117156110d557600080fd5b91908080601f0160208091040260200160405190810160405280939291908181526020018383808284376000920191909152509295506124fd945050505050565b610b876004803603602081101561112c57600080fd5b810190602081018135600160201b81111561114657600080fd5b82018360208201111561115857600080fd5b803590602001918460018302840111600160201b8311171561117957600080fd5b91908080601f01602080910402602001604051908101604052809392919081815260200183838082843760009201919091525092955061257e945050505050565b6102386125a4565b6105a7612605565b6105a761260e565b610b87600480360360208110156111e857600080fd5b5035612617565b61023861263e565b6103536004803603602081101561120d57600080fd5b810190602081018135600160201b81111561122757600080fd5b82018360208201111561123957600080fd5b803590602001918460018302840111600160201b8311171561125a57600080fd5b91908080601f01602080910402602001604051908101604052809392919081815260200183838082843760009201919091525092955061269f945050505050565b6112b8600480360360208110156112b157600080fd5b50356126f5565b604051808481526020018060200180602001838103835285818151815260200191508051906020019080838360005b838110156112ff5781810151838201526020016112e7565b50505050905090810190601f16801561132c5780820380516001836020036101000a031916815260200191505b50838103825284518152845160209182019186019080838360005b8381101561135f578181015183820152602001611347565b50505050905090810190601f16801561138c5780820380516001836020036101000a031916815260200191505b509550505050505060405180910390f35b6105a761282e565b610b8761283c565b6113d3600480360360208110156113c357600080fd5b50356001600160a01b031661284b565b604051808a6001600160a01b03168152602001806020018060200180602001891515815260200188151581526020018715158152602001806020018060200186810386528e818151815260200191508051906020019080838360005b8381101561144757818101518382015260200161142f565b50505050905090810190601f1680156114745780820380516001836020036101000a031916815260200191505b5086810385528d5181528d516020918201918f019080838360005b838110156114a757818101518382015260200161148f565b50505050905090810190601f1680156114d45780820380516001836020036101000a031916815260200191505b5086810384528c5181528c516020918201918e019080838360005b838110156115075781810151838201526020016114ef565b50505050905090810190601f1680156115345780820380516001836020036101000a031916815260200191505b5086810383528851815288516020918201918a019080838360005b8381101561156757818101518382015260200161154f565b50505050905090810190601f1680156115945780820380516001836020036101000a031916815260200191505b50868103825287518152875160209182019189019080838360005b838110156115c75781810151838201526020016115af565b50505050905090810190601f1680156115f45780820380516001836020036101000a031916815260200191505b509e50505050505050505050505050505060405180910390f35b60045490565b600b8054604080516020601f60026000196101006001881615020190951694909404938401819004810282018101909252828152606093909290918301828280156116a05780601f10611675576101008083540402835291602001916116a0565b820191906000526020600020905b81548152906001019060200180831161168357829003601f168201915b5050505050905090565b6001546001600160a01b03163314611703576040805162461bcd60e51b815260206004820152601760248201527621b0b63632b91034b9903737ba1037b933b0b734bd32b960491b604482015290519081900360640190fd5b6009826040518082805190602001908083835b602083106117355780518252601f199092019160209182019101611716565b51815160209384036101000a600019018019909216911617905292019485525060405193849003019092205460ff161591506117ba9050576040805162461bcd60e51b815260206004820152601c60248201527f54686973207369676e617475726520686173206265656e207573656400000000604482015290519081900360640190fd5b601054610100900460ff161561180e576040805162461bcd60e51b8152602060048201526014602482015273159bdd19481a5cc81b9bdd08199a5b9a5cda195960621b604482015290519081900360640190fd5b60016009836040518082805190602001908083835b602083106118425780518252601f199092019160209182019101611823565b51815160209384036101000a600019018019909216911617905292019485525060408051948590038201909420805460ff19169515159590951790945550506000928352600690915290206003018054600101905550565b6118a2612b5e565b5060408051610120810182523380825260208083018781528385018790526060840186905260006080850181905260a08501819052600160c086018190528651808501885282815260e0870152865180850188528281526101008701529381526007835294909420835181546001600160a01b0319166001600160a01b039091161781559351805193948594909361193f93908501920190612bb9565b506040820151805161195b916002840191602090910190612bb9565b5060608201518051611977916003840191602090910190612bb9565b50608082015160048201805460a085015160c08601511515620100000262ff0000199115156101000261ff001995151560ff199094169390931794909416919091171691909117905560e082015180516119db916005840191602090910190612bb9565b5061010082015180516119f8916006840191602090910190612bb9565b505060118054600181810183556000929092527f31ecc21a745e3968a04e9570e4425bc18fa8019c68028196b546d1669c200c680180546001600160a01b031916331790556004805490910190555050505050565b60006009826040518082805190602001908083835b60208310611a815780518252601f199092019160209182019101611a62565b51815160209384036101000a600019018019909216911617905292019485525060405193849003019092205460ff16949350505050565b805160208183018101805160098252928201919093012091525460ff1681565b6000546001600160a01b03163314611b2d576040805162461bcd60e51b815260206004820152601360248201527221b0b63632b91034b9903737ba1020b236b4b760691b604482015290519081900360640190fd5b611b35612c37565b5060408051608081018252600354808252602080830186815283850186905260006060850181905292835260068252939091208251815592518051929384939092611b87926001850192910190612bb9565b5060408201518051611ba3916002840191602090910190612bb9565b506060919091015160039182015580546001019055505050565b600f8054604080516020601f60026000196101006001881615020190951694909404938401819004810282018101909252828152606093909290918301828280156116a05780601f10611675576101008083540402835291602001916116a0565b6001546001600160a01b03163314611c77576040805162461bcd60e51b815260206004820152601760248201527621b0b63632b91034b9903737ba1037b933b0b734bd32b960491b604482015290519081900360640190fd5b6001600160a01b03166000908152600760205260409020600401805460ff1916911515919091179055565b6000546001600160a01b03163314611cf7576040805162461bcd60e51b815260206004820152601360248201527221b0b63632b91034b9903737ba1020b236b4b760691b604482015290519081900360640190fd5b6010805460ff1961ff001990911661010017169055565b6001805460028054604080516020610100848816150260001901909316849004601f81018490048402820184019092528181526001600160a01b0390941694939291830182828015611da15780601f10611d7657610100808354040283529160200191611da1565b820191906000526020600020905b815481529060010190602001808311611d8457829003601f168201915b5050505050905082565b6006602090815260009182526040918290208054600180830180548651600293821615610100026000190190911692909204601f810186900486028301860190965285825291949293909290830182828015611e485780601f10611e1d57610100808354040283529160200191611e48565b820191906000526020600020905b815481529060010190602001808311611e2b57829003601f168201915b50505060028085018054604080516020601f6000196101006001871615020190941695909504928301859004850281018501909152818152959695945090925090830182828015611eda5780601f10611eaf57610100808354040283529160200191611eda565b820191906000526020600020905b815481529060010190602001808311611ebd57829003601f168201915b5050505050908060030154905084565b60035490565b600b8054604080516020601f60026000196101006001881615020190951694909404938401819004810282018101909252828152918391830182828015611f785780601f10611f4d57610100808354040283529160200191611f78565b820191906000526020600020905b815481529060010190602001808311611f5b57829003601f168201915b505050505090806001018054600181600116156101000203166002900480601f0160208091040260200160405190810160405280929190818152602001828054600181600116156101000203166002900480156120165780601f10611feb57610100808354040283529160200191612016565b820191906000526020600020905b815481529060010190602001808311611ff957829003601f168201915b50505060028085018054604080516020601f60001961010060018716150201909416959095049283018590048502810185019091528181529596959450909250908301828280156120a85780601f1061207d576101008083540402835291602001916120a8565b820191906000526020600020905b81548152906001019060200180831161208b57829003601f168201915b5050505060038301805460408051602060026001851615610100026000190190941693909304601f81018490048402820184019092528181529495949350908301828280156121385780601f1061210d57610100808354040283529160200191612138565b820191906000526020600020905b81548152906001019060200180831161211b57829003601f168201915b5050505060048301805460408051602060026001851615610100026000190190941693909304601f81018490048402820184019092528181529495949350908301828280156121c85780601f1061219d576101008083540402835291602001916121c8565b820191906000526020600020905b8154815290600101906020018083116121ab57829003601f168201915b5050505050905085565b6000546001600160a01b031690565b60028054604080516020601f60001961010060018716150201909416859004938401819004810282018101909252828152606093909290918301828280156116a05780601f10611675576101008083540402835291602001916116a0565b6001546001600160a01b03163314612298576040805162461bcd60e51b815260206004820152601760248201527621b0b63632b91034b9903737ba1037b933b0b734bd32b960491b604482015290519081900360640190fd5b80516122ab906002906020840190612bb9565b5050565b600c8054604080516020601f60026000196101006001881615020190951694909404938401819004810282018101909252828152606093909290918301828280156116a05780601f10611675576101008083540402835291602001916116a0565b6001546001600160a01b031690565b601054610100900460ff1690565b6001546001600160a01b03163314612386576040805162461bcd60e51b815260206004820152601760248201527621b0b63632b91034b9903737ba1037b933b0b734bd32b960491b604482015290519081900360640190fd5b6001600160a01b038216600090815260076020908152604090912082516123b592600690920191840190612bb9565b505050565b6000546001600160a01b0316331461240f576040805162461bcd60e51b815260206004820152601360248201527221b0b63632b91034b9903737ba1020b236b4b760691b604482015290519081900360640190fd5b6040805160a0810182528781526020808201889052918101869052606081018590526080810184905287519091600b9161244e918391908b0190612bb9565b5060208281015180516124679260018501920190612bb9565b5060408201518051612483916002840191602090910190612bb9565b506060820151805161249f916003840191602090910190612bb9565b50608082015180516124bb916004840191602090910190612bb9565b5050600180546001600160a01b0319166001600160a01b0393909316929092178255506010805460ff191690911761ff00191690555050505050565b60035481565b612505612c5f565b506040805160608101825284815260208082018581528284018590526005546000908152600a8352939093208251815592518051929384939092612550926001850192910190612bb9565b506040820151805161256c916002840191602090910190612bb9565b50506005805460010190555050505050565b80516020818301810180516008825292820191909301209152546001600160a01b031681565b600d8054604080516020601f60026000196101006001881615020190951694909404938401819004810282018101909252828152606093909290918301828280156116a05780601f10611675576101008083540402835291602001916116a0565b60105460ff1681565b60105460ff1690565b6011818154811061262457fe5b6000918252602090912001546001600160a01b0316905081565b600e8054604080516020601f60026000196101006001881615020190951694909404938401819004810282018101909252828152606093909290918301828280156116a05780601f10611675576101008083540402835291602001916116a0565b3360009081526007602052604090206004015460ff166126be57600080fd5b33600090815260076020908152604090912060048101805461ff00191661010017905582516122ab92600590920191840190612bb9565b600a602090815260009182526040918290208054600180830180548651600293821615610100026000190190911692909204601f8101869004860283018601909652858252919492939092908301828280156127925780601f1061276757610100808354040283529160200191612792565b820191906000526020600020905b81548152906001019060200180831161277557829003601f168201915b50505060028085018054604080516020601f60001961010060018716150201909416959095049283018590048502810185019091528181529596959450909250908301828280156128245780601f106127f957610100808354040283529160200191612824565b820191906000526020600020905b81548152906001019060200180831161280757829003601f168201915b5050505050905083565b601054610100900460ff1681565b6000546001600160a01b031681565b6007602090815260009182526040918290208054600180830180548651600261010094831615949094026000190190911692909204601f81018690048602830186019096528582526001600160a01b039092169492939092908301828280156128f55780601f106128ca576101008083540402835291602001916128f5565b820191906000526020600020905b8154815290600101906020018083116128d857829003601f168201915b50505060028085018054604080516020601f60001961010060018716150201909416959095049283018590048502810185019091528181529596959450909250908301828280156129875780601f1061295c57610100808354040283529160200191612987565b820191906000526020600020905b81548152906001019060200180831161296a57829003601f168201915b5050505060038301805460408051602060026001851615610100026000190190941693909304601f8101849004840282018401909252818152949594935090830182828015612a175780601f106129ec57610100808354040283529160200191612a17565b820191906000526020600020905b8154815290600101906020018083116129fa57829003601f168201915b5050505060048301546005840180546040805160206002610100600186161581026000190190951604601f8101829004820283018201909352828252969760ff80871698948704811697506201000090960490951694939092909190830182828015612ac45780601f10612a9957610100808354040283529160200191612ac4565b820191906000526020600020905b815481529060010190602001808311612aa757829003601f168201915b5050505060068301805460408051602060026001851615610100026000190190941693909304601f8101849004840282018401909252818152949594935090830182828015612b545780601f10612b2957610100808354040283529160200191612b54565b820191906000526020600020905b815481529060010190602001808311612b3757829003601f168201915b5050505050905089565b60405180610120016040528060006001600160a01b0316815260200160608152602001606081526020016060815260200160001515815260200160001515815260200160001515815260200160608152602001606081525090565b828054600181600116156101000203166002900490600052602060002090601f016020900481019282601f10612bfa57805160ff1916838001178555612c27565b82800160010185558215612c27579182015b82811115612c27578251825591602001919060010190612c0c565b50612c33929150612c80565b5090565b6040518060800160405280600081526020016060815260200160608152602001600081525090565b60405180606001604052806000815260200160608152602001606081525090565b5b80821115612c335760008155600101612c8156fea26469706673582212207cb9ec701031b16f7d27f6ad77e6780b91ffab3ce074a0be0f14263527b88ada64736f6c63430007000033",
  "linkReferences": {},
  "deployedLinkReferences": {}
}