{
  "_format": "hh-sol-artifact-1",
  "contractName": "Election",
  "sourceName": "contracts/election.sol",
  "abi": [
    {
      "inputs": [],
      "stateMutability": "nonpayable",
      "type": "constructor"
    },
    {
      "inputs": [
        {
          "internalType": "uint256",
          "name": "",
          "type": "uint256"
        }
      ],
      "name": "Ballots",
      "outputs": [
        {
          "internalType": "uint256",
          "name": "choiceCode",
          "type": "uint256"
        },
        {
          "internalType": "string",
          "name": "secretKey",
          "type": "string"
        },
        {
          "internalType": "string",
          "name": "organizersig",
          "type": "string"
        },
        {
          "internalType": "string",
          "name": "inspectorsig",
          "type": "string"
        }
      ],
      "stateMutability": "view",
      "type": "function"
    },
    {
      "inputs": [
        {
          "internalType": "address",
          "name": "",
          "type": "address"
        }
      ],
      "name": "Voters",
      "outputs": [
        {
          "internalType": "address",
          "name": "voterAddress",
          "type": "address"
        },
        {
          "internalType": "string",
          "name": "nationalNumber",
          "type": "string"
        },
        {
          "internalType": "string",
          "name": "phone",
          "type": "string"
        },
        {
          "internalType": "bool",
          "name": "eligible",
          "type": "bool"
        },
        {
          "internalType": "bool",
          "name": "hasVoted",
          "type": "bool"
        },
        {
          "internalType": "bool",
          "name": "isRegistered",
          "type": "bool"
        },
        {
          "internalType": "string",
          "name": "blindedVote",
          "type": "string"
        },
        {
          "internalType": "string",
          "name": "organizersig",
          "type": "string"
        },
        {
          "internalType": "string",
          "name": "inspectorsig",
          "type": "string"
        }
      ],
      "stateMutability": "view",
      "type": "function"
    },
    {
      "inputs": [
        {
          "internalType": "string",
          "name": "_header",
          "type": "string"
        },
        {
          "internalType": "string",
          "name": "_slogan",
          "type": "string"
        }
      ],
      "name": "addCandidate",
      "outputs": [],
      "stateMutability": "nonpayable",
      "type": "function"
    },
    {
      "inputs": [],
      "name": "admin",
      "outputs": [
        {
          "internalType": "address",
          "name": "",
          "type": "address"
        }
      ],
      "stateMutability": "view",
      "type": "function"
    },
    {
      "inputs": [
        {
          "internalType": "string",
          "name": "",
          "type": "string"
        }
      ],
      "name": "blindedVotes",
      "outputs": [
        {
          "internalType": "address",
          "name": "",
          "type": "address"
        }
      ],
      "stateMutability": "view",
      "type": "function"
    },
    {
      "inputs": [],
      "name": "candidateCount",
      "outputs": [
        {
          "internalType": "uint256",
          "name": "",
          "type": "uint256"
        }
      ],
      "stateMutability": "view",
      "type": "function"
    },
    {
      "inputs": [
        {
          "internalType": "uint256",
          "name": "",
          "type": "uint256"
        }
      ],
      "name": "candidateDetails",
      "outputs": [
        {
          "internalType": "uint256",
          "name": "candidateId",
          "type": "uint256"
        },
        {
          "internalType": "string",
          "name": "name",
          "type": "string"
        },
        {
          "internalType": "string",
          "name": "slogan",
          "type": "string"
        },
        {
          "internalType": "uint256",
          "name": "voteCount",
          "type": "uint256"
        }
      ],
      "stateMutability": "view",
      "type": "function"
    },
    {
      "inputs": [],
      "name": "electionDetails",
      "outputs": [
        {
          "internalType": "string",
          "name": "adminName",
          "type": "string"
        },
        {
          "internalType": "string",
          "name": "adminEmail",
          "type": "string"
        },
        {
          "internalType": "string",
          "name": "adminTitle",
          "type": "string"
        },
        {
          "internalType": "string",
          "name": "electionTitle",
          "type": "string"
        },
        {
          "internalType": "string",
          "name": "organizationTitle",
          "type": "string"
        }
      ],
      "stateMutability": "view",
      "type": "function"
    },
    {
      "inputs": [],
      "name": "end",
      "outputs": [
        {
          "internalType": "bool",
          "name": "",
          "type": "bool"
        }
      ],
      "stateMutability": "view",
      "type": "function"
    },
    {
      "inputs": [],
      "name": "endElection",
      "outputs": [],
      "stateMutability": "nonpayable",
      "type": "function"
    },
    {
      "inputs": [],
      "name": "getAdmin",
      "outputs": [
        {
          "internalType": "address",
          "name": "",
          "type": "address"
        }
      ],
      "stateMutability": "view",
      "type": "function"
    },
    {
      "inputs": [],
      "name": "getAdminEmail",
      "outputs": [
        {
          "internalType": "string",
          "name": "",
          "type": "string"
        }
      ],
      "stateMutability": "view",
      "type": "function"
    },
    {
      "inputs": [],
      "name": "getAdminName",
      "outputs": [
        {
          "internalType": "string",
          "name": "",
          "type": "string"
        }
      ],
      "stateMutability": "view",
      "type": "function"
    },
    {
      "inputs": [],
      "name": "getAdminTitle",
      "outputs": [
        {
          "internalType": "string",
          "name": "",
          "type": "string"
        }
      ],
      "stateMutability": "view",
      "type": "function"
    },
    {
      "inputs": [],
      "name": "getElectionTitle",
      "outputs": [
        {
          "internalType": "string",
          "name": "",
          "type": "string"
        }
      ],
      "stateMutability": "view",
      "type": "function"
    },
    {
      "inputs": [],
      "name": "getEnd",
      "outputs": [
        {
          "internalType": "bool",
          "name": "",
          "type": "bool"
        }
      ],
      "stateMutability": "view",
      "type": "function"
    },
    {
      "inputs": [],
      "name": "getInspectorAddress",
      "outputs": [
        {
          "internalType": "address",
          "name": "",
          "type": "address"
        }
      ],
      "stateMutability": "view",
      "type": "function"
    },
    {
      "inputs": [],
      "name": "getInspectorSigniturePublicKey",
      "outputs": [
        {
          "internalType": "string",
          "name": "",
          "type": "string"
        }
      ],
      "stateMutability": "view",
      "type": "function"
    },
    {
      "inputs": [],
      "name": "getOrganizationTitle",
      "outputs": [
        {
          "internalType": "string",
          "name": "",
          "type": "string"
        }
      ],
      "stateMutability": "view",
      "type": "function"
    },
    {
      "inputs": [],
      "name": "getOrganizerAddress",
      "outputs": [
        {
          "internalType": "address",
          "name": "",
          "type": "address"
        }
      ],
      "stateMutability": "view",
      "type": "function"
    },
    {
      "inputs": [],
      "name": "getOrganizerSigniturePublicKey",
      "outputs": [
        {
          "internalType": "string",
          "name": "",
          "type": "string"
        }
      ],
      "stateMutability": "view",
      "type": "function"
    },
    {
      "inputs": [],
      "name": "getStart",
      "outputs": [
        {
          "internalType": "bool",
          "name": "",
          "type": "bool"
        }
      ],
      "stateMutability": "view",
      "type": "function"
    },
    {
      "inputs": [],
      "name": "getTotalBallots",
      "outputs": [
        {
          "internalType": "uint256",
          "name": "",
          "type": "uint256"
        }
      ],
      "stateMutability": "view",
      "type": "function"
    },
    {
      "inputs": [],
      "name": "getTotalCandidate",
      "outputs": [
        {
          "internalType": "uint256",
          "name": "",
          "type": "uint256"
        }
      ],
      "stateMutability": "view",
      "type": "function"
    },
    {
      "inputs": [],
      "name": "getTotalVoter",
      "outputs": [
        {
          "internalType": "uint256",
          "name": "",
          "type": "uint256"
        }
      ],
      "stateMutability": "view",
      "type": "function"
    },
    {
      "inputs": [],
      "name": "inspector",
      "outputs": [
        {
          "internalType": "address",
          "name": "inspectorAddress",
          "type": "address"
        },
        {
          "internalType": "string",
          "name": "signiturePublicKey",
          "type": "string"
        }
      ],
      "stateMutability": "view",
      "type": "function"
    },
    {
      "inputs": [],
      "name": "organizer",
      "outputs": [
        {
          "internalType": "address",
          "name": "organizerAddress",
          "type": "address"
        },
        {
          "internalType": "string",
          "name": "signiturePublicKey",
          "type": "string"
        }
      ],
      "stateMutability": "view",
      "type": "function"
    },
    {
      "inputs": [
        {
          "internalType": "string",
          "name": "_nationalNumber",
          "type": "string"
        },
        {
          "internalType": "string",
          "name": "_phone",
          "type": "string"
        }
      ],
      "name": "registerAsVoter",
      "outputs": [],
      "stateMutability": "nonpayable",
      "type": "function"
    },
    {
      "inputs": [
        {
          "internalType": "string",
          "name": "_blindedVote",
          "type": "string"
        }
      ],
      "name": "requestBlindSig",
      "outputs": [],
      "stateMutability": "nonpayable",
      "type": "function"
    },
    {
      "inputs": [
        {
          "internalType": "string",
          "name": "_adminName",
          "type": "string"
        },
        {
          "internalType": "string",
          "name": "_adminEmail",
          "type": "string"
        },
        {
          "internalType": "string",
          "name": "_adminTitle",
          "type": "string"
        },
        {
          "internalType": "string",
          "name": "_electionTitle",
          "type": "string"
        },
        {
          "internalType": "string",
          "name": "_organizationTitle",
          "type": "string"
        },
        {
          "internalType": "address",
          "name": "_organizerAddress",
          "type": "address"
        },
        {
          "internalType": "address",
          "name": "_inspectorAddress",
          "type": "address"
        }
      ],
      "name": "setElectionDetails",
      "outputs": [],
      "stateMutability": "nonpayable",
      "type": "function"
    },
    {
      "inputs": [
        {
          "internalType": "string",
          "name": "_publicKey",
          "type": "string"
        }
      ],
      "name": "setInspectorSigniturePublicKey",
      "outputs": [],
      "stateMutability": "nonpayable",
      "type": "function"
    },
    {
      "inputs": [
        {
          "internalType": "string",
          "name": "_publicKey",
          "type": "string"
        }
      ],
      "name": "setOrganizerSigniturePublicKey",
      "outputs": [],
      "stateMutability": "nonpayable",
      "type": "function"
    },
    {
      "inputs": [
        {
          "internalType": "string",
          "name": "_sig",
          "type": "string"
        }
      ],
      "name": "signitureIsUsed",
      "outputs": [
        {
          "internalType": "bool",
          "name": "",
          "type": "bool"
        }
      ],
      "stateMutability": "view",
      "type": "function"
    },
    {
      "inputs": [],
      "name": "start",
      "outputs": [
        {
          "internalType": "bool",
          "name": "",
          "type": "bool"
        }
      ],
      "stateMutability": "view",
      "type": "function"
    },
    {
      "inputs": [
        {
          "internalType": "string",
          "name": "",
          "type": "string"
        }
      ],
      "name": "usedSignatures",
      "outputs": [
        {
          "internalType": "bool",
          "name": "",
          "type": "bool"
        }
      ],
      "stateMutability": "view",
      "type": "function"
    },
    {
      "inputs": [
        {
          "internalType": "string",
          "name": "_blindVote",
          "type": "string"
        },
        {
          "internalType": "uint256",
          "name": "_choiceCode",
          "type": "uint256"
        }
      ],
      "name": "validBallots",
      "outputs": [],
      "stateMutability": "nonpayable",
      "type": "function"
    },
    {
      "inputs": [
        {
          "internalType": "bool",
          "name": "_verifedStatus",
          "type": "bool"
        },
        {
          "internalType": "address",
          "name": "voterAddress",
          "type": "address"
        }
      ],
      "name": "verifyVoter",
      "outputs": [],
      "stateMutability": "nonpayable",
      "type": "function"
    },
    {
      "inputs": [
        {
          "internalType": "uint256",
          "name": "_choiceCode",
          "type": "uint256"
        },
        {
          "internalType": "string",
          "name": "_secretKey",
          "type": "string"
        },
        {
          "internalType": "string",
          "name": "_organizersig",
          "type": "string"
        },
        {
          "internalType": "string",
          "name": "_inspectorsig",
          "type": "string"
        }
      ],
      "name": "vote",
      "outputs": [],
      "stateMutability": "nonpayable",
      "type": "function"
    },
    {
      "inputs": [
        {
          "internalType": "uint256",
          "name": "",
          "type": "uint256"
        }
      ],
      "name": "voters",
      "outputs": [
        {
          "internalType": "address",
          "name": "",
          "type": "address"
        }
      ],
      "stateMutability": "view",
      "type": "function"
    },
    {
      "inputs": [
        {
          "internalType": "address",
          "name": "_voter",
          "type": "address"
        },
        {
          "internalType": "string",
          "name": "blindSig",
          "type": "string"
        }
      ],
      "name": "writeInspectorSig",
      "outputs": [],
      "stateMutability": "nonpayable",
      "type": "function"
    },
    {
      "inputs": [
        {
          "internalType": "address",
          "name": "_voter",
          "type": "address"
        },
        {
          "internalType": "string",
          "name": "blindSig",
          "type": "string"
        }
      ],
      "name": "writeOrganizerSig",
      "outputs": [],
      "stateMutability": "nonpayable",
      "type": "function"
    }
  ],
  "bytecode": "0x608060405234801561001057600080fd5b50600080546001600160a01b03191633179055613236806100326000396000f3fe608060405234801561001057600080fd5b50600436106102535760003560e01c80637be9857211610146578063c5292c67116100c3578063ed2cee9e11610087578063ed2cee9e1461132f578063ef92bcab14611337578063efbe1c1c1461149f578063f851a440146114a7578063fdedaa8a146114af578063fee0d19a1461171057610253565b8063c5292c67146110a9578063da58c7d9146110b1578063dd4159c0146110ce578063e173730c14611283578063ea09cdb61461128b57610253565b8063a88c553d1161010a578063a88c553d14610f49578063a9a981a314610fed578063b4c2b80e14610ff5578063be081b6f14611099578063be9a6555146110a157610253565b80637be9857214610e75578063831318f114610e7d5780639593166714610e8557806397d41b3514610f395780639f05a36d14610f4157610253565b806347f223db116101d457806361203265116101985780636120326514610ab45780636247e53214610b4457806364d198a114610c4d5780636d2f696614610c555780636e9960c314610e6d57610253565b806347f223db146109ca5780634834317514610a6e5780634f05ddab14610a76578063506b8e0a14610a7e57806359f7846814610aac57610253565b80631bbbf6261161021b5780631bbbf6261461071d578063252f5108146107d157806326541b5614610875578063317b1a331461099e5780633448b749146109a657610253565b806307298d76146102585780630b93400e146105285780630e2354cf146105425780630ec74bf7146105bf5780631b9f483314610665575b600080fd5b610526600480360360e081101561026e57600080fd5b810190602081018135600160201b81111561028857600080fd5b82018360208201111561029a57600080fd5b803590602001918460018302840111600160201b831117156102bb57600080fd5b91908080601f0160208091040260200160405190810160405280939291908181526020018383808284376000920191909152509295949360208101935035915050600160201b81111561030d57600080fd5b82018360208201111561031f57600080fd5b803590602001918460018302840111600160201b8311171561034057600080fd5b91908080601f0160208091040260200160405190810160405280939291908181526020018383808284376000920191909152509295949360208101935035915050600160201b81111561039257600080fd5b8201836020820111156103a457600080fd5b803590602001918460018302840111600160201b831117156103c557600080fd5b91908080601f0160208091040260200160405190810160405280939291908181526020018383808284376000920191909152509295949360208101935035915050600160201b81111561041757600080fd5b82018360208201111561042957600080fd5b803590602001918460018302840111600160201b8311171561044a57600080fd5b91908080601f0160208091040260200160405190810160405280939291908181526020018383808284376000920191909152509295949360208101935035915050600160201b81111561049c57600080fd5b8201836020820111156104ae57600080fd5b803590602001918460018302840111600160201b831117156104cf57600080fd5b91908080601f016020809104026020016040519081016040528093929190818152602001838380828437600092019190915250929550506001600160a01b0383358116945060209093013590921691506118399050565b005b610530611986565b60408051918252519081900360200190f35b61054a61198c565b6040805160208082528351818301528351919283929083019185019080838360005b8381101561058457818101518382015260200161056c565b50505050905090810190601f1680156105b15780820380516001836020036101000a031916815260200191505b509250505060405180910390f35b610526600480360360408110156105d557600080fd5b810190602081018135600160201b8111156105ef57600080fd5b82018360208201111561060157600080fd5b803590602001918460018302840111600160201b8311171561062257600080fd5b91908080601f0160208091040260200160405190810160405280939291908181526020018383808284376000920191909152509295505091359250611a22915050565b6107096004803603602081101561067b57600080fd5b810190602081018135600160201b81111561069557600080fd5b8201836020820111156106a757600080fd5b803590602001918460018302840111600160201b831117156106c857600080fd5b91908080601f016020809104026020016040519081016040528093929190818152602001838380828437600092019190915250929550611c05945050505050565b604080519115158252519081900360200190f35b6105266004803603604081101561073357600080fd5b6001600160a01b038235169190810190604081016020820135600160201b81111561075d57600080fd5b82018360208201111561076f57600080fd5b803590602001918460018302840111600160201b8311171561079057600080fd5b91908080601f016020809104026020016040519081016040528093929190818152602001838380828437600092019190915250929550611c70945050505050565b610709600480360360208110156107e757600080fd5b810190602081018135600160201b81111561080157600080fd5b82018360208201111561081357600080fd5b803590602001918460018302840111600160201b8311171561083457600080fd5b91908080601f016020809104026020016040519081016040528093929190818152602001838380828437600092019190915250929550611cf1945050505050565b6105266004803603604081101561088b57600080fd5b810190602081018135600160201b8111156108a557600080fd5b8201836020820111156108b757600080fd5b803590602001918460018302840111600160201b831117156108d857600080fd5b91908080601f0160208091040260200160405190810160405280939291908181526020018383808284376000920191909152509295949360208101935035915050600160201b81111561092a57600080fd5b82018360208201111561093c57600080fd5b803590602001918460018302840111600160201b8311171561095d57600080fd5b91908080601f016020809104026020016040519081016040528093929190818152602001838380828437600092019190915250929550611d11945050505050565b610530611df8565b6109ae611dfe565b604080516001600160a01b039092168252519081900360200190f35b610526600480360360208110156109e057600080fd5b810190602081018135600160201b8111156109fa57600080fd5b820183602082011115610a0c57600080fd5b803590602001918460018302840111600160201b83111715610a2d57600080fd5b91908080601f016020809104026020016040519081016040528093929190818152602001838380828437600092019190915250929550611e0d945050505050565b61054a611e71565b61054a611ed2565b61052660048036036040811015610a9457600080fd5b508035151590602001356001600160a01b0316611f33565b610526611fab565b610abc612017565b60405180836001600160a01b0316815260200180602001828103825283818151815260200191508051906020019080838360005b83811015610b08578181015183820152602001610af0565b50505050905090810190601f168015610b355780820380516001836020036101000a031916815260200191505b50935050505060405180910390f35b610b6160048036036020811015610b5a57600080fd5b50356120b4565b604051808581526020018060200180602001848152602001838103835286818151815260200191508051906020019080838360005b83811015610bae578181015183820152602001610b96565b50505050905090810190601f168015610bdb5780820380516001836020036101000a031916815260200191505b50838103825285518152855160209182019187019080838360005b83811015610c0e578181015183820152602001610bf6565b50505050905090810190601f168015610c3b5780820380516001836020036101000a031916815260200191505b50965050505050505060405180910390f35b6105306121f3565b610c5d6121f9565b60405180806020018060200180602001806020018060200186810386528b818151815260200191508051906020019080838360005b83811015610caa578181015183820152602001610c92565b50505050905090810190601f168015610cd75780820380516001836020036101000a031916815260200191505b5086810385528a5181528a516020918201918c019080838360005b83811015610d0a578181015183820152602001610cf2565b50505050905090810190601f168015610d375780820380516001836020036101000a031916815260200191505b5086810384528951815289516020918201918b019080838360005b83811015610d6a578181015183820152602001610d52565b50505050905090810190601f168015610d975780820380516001836020036101000a031916815260200191505b5086810383528851815288516020918201918a019080838360005b83811015610dca578181015183820152602001610db2565b50505050905090810190601f168015610df75780820380516001836020036101000a031916815260200191505b50868103825287518152875160209182019189019080838360005b83811015610e2a578181015183820152602001610e12565b50505050905090810190601f168015610e575780820380516001836020036101000a031916815260200191505b509a505050505050505050505060405180910390f35b6109ae6124db565b61054a6124ea565b61054a612548565b61052660048036036040811015610e9b57600080fd5b6001600160a01b038235169190810190604081016020820135600160201b811115610ec557600080fd5b820183602082011115610ed757600080fd5b803590602001918460018302840111600160201b83111715610ef857600080fd5b91908080601f0160208091040260200160405190810160405280939291908181526020018383808284376000920191909152509295506125a9945050505050565b6109ae612625565b610709612634565b61052660048036036020811015610f5f57600080fd5b810190602081018135600160201b811115610f7957600080fd5b820183602082011115610f8b57600080fd5b803590602001918460018302840111600160201b83111715610fac57600080fd5b91908080601f016020809104026020016040519081016040528093929190818152602001838380828437600092019190915250929550612642945050505050565b6105306126a2565b6109ae6004803603602081101561100b57600080fd5b810190602081018135600160201b81111561102557600080fd5b82018360208201111561103757600080fd5b803590602001918460018302840111600160201b8311171561105857600080fd5b91908080601f0160208091040260200160405190810160405280939291908181526020018383808284376000920191909152509295506126a8945050505050565b61054a6126ce565b61070961272f565b610709612738565b6109ae600480360360208110156110c757600080fd5b5035612741565b610526600480360360808110156110e457600080fd5b81359190810190604081016020820135600160201b81111561110557600080fd5b82018360208201111561111757600080fd5b803590602001918460018302840111600160201b8311171561113857600080fd5b91908080601f0160208091040260200160405190810160405280939291908181526020018383808284376000920191909152509295949360208101935035915050600160201b81111561118a57600080fd5b82018360208201111561119c57600080fd5b803590602001918460018302840111600160201b831117156111bd57600080fd5b91908080601f0160208091040260200160405190810160405280939291908181526020018383808284376000920191909152509295949360208101935035915050600160201b81111561120f57600080fd5b82018360208201111561122157600080fd5b803590602001918460018302840111600160201b8311171561124257600080fd5b91908080601f016020809104026020016040519081016040528093929190818152602001838380828437600092019190915250929550612768945050505050565b61054a6128ab565b610526600480360360208110156112a157600080fd5b810190602081018135600160201b8111156112bb57600080fd5b8201836020820111156112cd57600080fd5b803590602001918460018302840111600160201b831117156112ee57600080fd5b91908080601f01602080910402602001604051908101604052809392919081815260200183838082843760009201919091525092955061290c945050505050565b610abc612962565b6113546004803603602081101561134d57600080fd5b50356129ce565b60405180858152602001806020018060200180602001848103845287818151815260200191508051906020019080838360005b8381101561139f578181015183820152602001611387565b50505050905090810190601f1680156113cc5780820380516001836020036101000a031916815260200191505b50848103835286518152865160209182019188019080838360005b838110156113ff5781810151838201526020016113e7565b50505050905090810190601f16801561142c5780820380516001836020036101000a031916815260200191505b50848103825285518152855160209182019187019080838360005b8381101561145f578181015183820152602001611447565b50505050905090810190601f16801561148c5780820380516001836020036101000a031916815260200191505b5097505050505050505060405180910390f35b610709612b97565b6109ae612ba5565b6114d5600480360360208110156114c557600080fd5b50356001600160a01b0316612bb4565b604051808a6001600160a01b03168152602001806020018060200189151581526020018815158152602001871515815260200180602001806020018060200186810386528e818151815260200191508051906020019080838360005b83811015611549578181015183820152602001611531565b50505050905090810190601f1680156115765780820380516001836020036101000a031916815260200191505b5086810385528d5181528d516020918201918f019080838360005b838110156115a9578181015183820152602001611591565b50505050905090810190601f1680156115d65780820380516001836020036101000a031916815260200191505b5086810384528951815289516020918201918b019080838360005b838110156116095781810151838201526020016115f1565b50505050905090810190601f1680156116365780820380516001836020036101000a031916815260200191505b5086810383528851815288516020918201918a019080838360005b83811015611669578181015183820152602001611651565b50505050905090810190601f1680156116965780820380516001836020036101000a031916815260200191505b50868103825287518152875160209182019189019080838360005b838110156116c95781810151838201526020016116b1565b50505050905090810190601f1680156116f65780820380516001836020036101000a031916815260200191505b509e50505050505050505050505050505060405180910390f35b6105266004803603604081101561172657600080fd5b810190602081018135600160201b81111561174057600080fd5b82018360208201111561175257600080fd5b803590602001918460018302840111600160201b8311171561177357600080fd5b91908080601f0160208091040260200160405190810160405280939291908181526020018383808284376000920191909152509295949360208101935035915050600160201b8111156117c557600080fd5b8201836020820111156117d757600080fd5b803590602001918460018302840111600160201b831117156117f857600080fd5b91908080601f016020809104026020016040519081016040528093929190818152602001838380828437600092019190915250929550612ec7945050505050565b6000546001600160a01b0316331461188e576040805162461bcd60e51b815260206004820152601360248201527221b0b63632b91034b9903737ba1020b236b4b760691b604482015290519081900360640190fd5b6040805160a0810182528881526020808201899052918101879052606081018690526080810185905288519091600d916118cd918391908c0190613081565b5060208281015180516118e69260018501920190613081565b5060408201518051611902916002840191602090910190613081565b506060820151805161191e916003840191602090910190613081565b506080820151805161193a916004840191602090910190613081565b5050600180546001600160a01b03199081166001600160a01b039586161782556003805490911693909416929092179092556012805460ff191690911761ff0019169055505050505050565b60065490565b600d8054604080516020601f6002600019610100600188161502019095169490940493840181900481028201810190925282815260609390929091830182828015611a185780601f106119ed57610100808354040283529160200191611a18565b820191906000526020600020905b8154815290600101906020018083116119fb57829003601f168201915b5050505050905090565b6001546001600160a01b03163314611a6f576040805162461bcd60e51b815260206004820152601760248201526000805160206131c0833981519152604482015290519081900360640190fd5b600c826040518082805190602001908083835b60208310611aa15780518252601f199092019160209182019101611a82565b51815160209384036101000a600019018019909216911617905292019485525060405193849003019092205460ff16159150611b269050576040805162461bcd60e51b815260206004820152601c60248201527f54686973207369676e617475726520686173206265656e207573656400000000604482015290519081900360640190fd5b601254610100900460ff16611b79576040805162461bcd60e51b8152602060048201526014602482015273159bdd19481a5cc81b9bdd08199a5b9a5cda195960621b604482015290519081900360640190fd5b6001600c836040518082805190602001908083835b60208310611bad5780518252601f199092019160209182019101611b8e565b51815160209384036101000a600019018019909216911617905292019485525060408051948590038201909420805460ff19169515159590951790945550506000928352600890915290206003018054600101905550565b6000600c826040518082805190602001908083835b60208310611c395780518252601f199092019160209182019101611c1a565b51815160209384036101000a600019018019909216911617905292019485525060405193849003019092205460ff16949350505050565b6001546001600160a01b03163314611cbd576040805162461bcd60e51b815260206004820152601760248201526000805160206131c0833981519152604482015290519081900360640190fd5b6001600160a01b03821660009081526009602090815260409091208251611cec92600590920191840190613081565b505050565b8051602081830181018051600c8252928201919093012091525460ff1681565b6000546001600160a01b03163314611d66576040805162461bcd60e51b815260206004820152601360248201527221b0b63632b91034b9903737ba1020b236b4b760691b604482015290519081900360640190fd5b611d6e6130ff565b5060408051608081018252600554808252602080830186815283850186905260006060850181905292835260088252939091208251815592518051929384939092611dc0926001850192910190613081565b5060408201518051611ddc916002840191602090910190613081565b5060609190910151600390910155505060058054600101905550565b60075490565b6003546001600160a01b031690565b6003546001600160a01b03163314611e5a576040805162461bcd60e51b815260206004820152601760248201526000805160206131c0833981519152604482015290519081900360640190fd5b8051611e6d906004906020840190613081565b5050565b60118054604080516020601f6002600019610100600188161502019095169490940493840181900481028201810190925282815260609390929091830182828015611a185780601f106119ed57610100808354040283529160200191611a18565b60048054604080516020601f6002600019610100600188161502019095169490940493840181900481028201810190925282815260609390929091830182828015611a185780601f106119ed57610100808354040283529160200191611a18565b6001546001600160a01b03163314611f80576040805162461bcd60e51b815260206004820152601760248201526000805160206131c0833981519152604482015290519081900360640190fd5b6001600160a01b03166000908152600960205260409020600301805460ff1916911515919091179055565b6000546001600160a01b03163314612000576040805162461bcd60e51b815260206004820152601360248201527221b0b63632b91034b9903737ba1020b236b4b760691b604482015290519081900360640190fd5b6012805460ff1961ff001990911661010017169055565b6001805460028054604080516020610100848816150260001901909316849004601f81018490048402820184019092528181526001600160a01b03909416949392918301828280156120aa5780601f1061207f576101008083540402835291602001916120aa565b820191906000526020600020905b81548152906001019060200180831161208d57829003601f168201915b5050505050905082565b6008602090815260009182526040918290208054600180830180548651600293821615610100026000190190911692909204601f8101869004860283018601909652858252919492939092908301828280156121515780601f1061212657610100808354040283529160200191612151565b820191906000526020600020905b81548152906001019060200180831161213457829003601f168201915b50505060028085018054604080516020601f60001961010060018716150201909416959095049283018590048502810185019091528181529596959450909250908301828280156121e35780601f106121b8576101008083540402835291602001916121e3565b820191906000526020600020905b8154815290600101906020018083116121c657829003601f168201915b5050505050908060030154905084565b60055490565b600d8054604080516020601f600260001961010060018816150201909516949094049384018190048102820181019092528281529183918301828280156122815780601f1061225657610100808354040283529160200191612281565b820191906000526020600020905b81548152906001019060200180831161226457829003601f168201915b505050505090806001018054600181600116156101000203166002900480601f01602080910402602001604051908101604052809291908181526020018280546001816001161561010002031660029004801561231f5780601f106122f45761010080835404028352916020019161231f565b820191906000526020600020905b81548152906001019060200180831161230257829003601f168201915b50505060028085018054604080516020601f60001961010060018716150201909416959095049283018590048502810185019091528181529596959450909250908301828280156123b15780601f10612386576101008083540402835291602001916123b1565b820191906000526020600020905b81548152906001019060200180831161239457829003601f168201915b5050505060038301805460408051602060026001851615610100026000190190941693909304601f81018490048402820184019092528181529495949350908301828280156124415780601f1061241657610100808354040283529160200191612441565b820191906000526020600020905b81548152906001019060200180831161242457829003601f168201915b5050505060048301805460408051602060026001851615610100026000190190941693909304601f81018490048402820184019092528181529495949350908301828280156124d15780601f106124a6576101008083540402835291602001916124d1565b820191906000526020600020905b8154815290600101906020018083116124b457829003601f168201915b5050505050905085565b6000546001600160a01b031690565b60028054604080516020601f6000196101006001871615020190941685900493840181900481028201810190925282815260609390929091830182828015611a185780601f106119ed57610100808354040283529160200191611a18565b600e8054604080516020601f6002600019610100600188161502019095169490940493840181900481028201810190925282815260609390929091830182828015611a185780601f106119ed57610100808354040283529160200191611a18565b6003546001600160a01b031633146125f6576040805162461bcd60e51b815260206004820152601760248201526000805160206131c0833981519152604482015290519081900360640190fd5b6001600160a01b03821660009081526009602090815260409091208251611cec92600690920191840190613081565b6001546001600160a01b031690565b601254610100900460ff1690565b6001546001600160a01b0316331461268f576040805162461bcd60e51b815260206004820152601760248201526000805160206131c0833981519152604482015290519081900360640190fd5b8051611e6d906002906020840190613081565b60055481565b8051602081830181018051600a825292820191909301209152546001600160a01b031681565b600f8054604080516020601f6002600019610100600188161502019095169490940493840181900481028201810190925282815260609390929091830182828015611a185780601f106119ed57610100808354040283529160200191611a18565b60125460ff1681565b60125460ff1690565b6013818154811061274e57fe5b6000918252602090912001546001600160a01b0316905081565b60125460ff166127a95760405162461bcd60e51b81526004018080602001828103825260218152602001806131e06021913960400191505060405180910390fd5b601254610100900460ff1615612806576040805162461bcd60e51b815260206004820152601760248201527f456c656374696f6e20686173206265656e20656e646564000000000000000000604482015290519081900360640190fd5b61280e613127565b50604080516080810182528581526020808201868152828401869052606083018590526007546000908152600b8352939093208251815592518051929384939092612860926001850192910190613081565b506040820151805161287c916002840191602090910190613081565b5060608201518051612898916003840191602090910190613081565b5050600780546001019055505050505050565b60108054604080516020601f6002600019610100600188161502019095169490940493840181900481028201810190925282815260609390929091830182828015611a185780601f106119ed57610100808354040283529160200191611a18565b3360009081526009602052604090206003015460ff1661292b57600080fd5b33600090815260096020908152604090912060038101805461ff0019166101001790558251611e6d92600490920191840190613081565b600380546004805460408051602060026101006001861615026000190190941693909304601f81018490048402820184019092528181526001600160a01b03909416949392918301828280156120aa5780601f1061207f576101008083540402835291602001916120aa565b600b602090815260009182526040918290208054600180830180548651600293821615610100026000190190911692909204601f810186900486028301860190965285825291949293909290830182828015612a6b5780601f10612a4057610100808354040283529160200191612a6b565b820191906000526020600020905b815481529060010190602001808311612a4e57829003601f168201915b50505060028085018054604080516020601f6000196101006001871615020190941695909504928301859004850281018501909152818152959695945090925090830182828015612afd5780601f10612ad257610100808354040283529160200191612afd565b820191906000526020600020905b815481529060010190602001808311612ae057829003601f168201915b5050505060038301805460408051602060026001851615610100026000190190941693909304601f8101849004840282018401909252818152949594935090830182828015612b8d5780601f10612b6257610100808354040283529160200191612b8d565b820191906000526020600020905b815481529060010190602001808311612b7057829003601f168201915b5050505050905084565b601254610100900460ff1681565b6000546001600160a01b031681565b6009602090815260009182526040918290208054600180830180548651600261010094831615949094026000190190911692909204601f81018690048602830186019096528582526001600160a01b03909216949293909290830182828015612c5e5780601f10612c3357610100808354040283529160200191612c5e565b820191906000526020600020905b815481529060010190602001808311612c4157829003601f168201915b50505060028085018054604080516020601f6000196101006001871615020190941695909504928301859004850281018501909152818152959695945090925090830182828015612cf05780601f10612cc557610100808354040283529160200191612cf0565b820191906000526020600020905b815481529060010190602001808311612cd357829003601f168201915b5050505060038301546004840180546040805160206002610100600186161581026000190190951604601f8101829004820283018201909352828252969760ff80871698948704811697506201000090960490951694939092909190830182828015612d9d5780601f10612d7257610100808354040283529160200191612d9d565b820191906000526020600020905b815481529060010190602001808311612d8057829003601f168201915b5050505060058301805460408051602060026001851615610100026000190190941693909304601f8101849004840282018401909252818152949594935090830182828015612e2d5780601f10612e0257610100808354040283529160200191612e2d565b820191906000526020600020905b815481529060010190602001808311612e1057829003601f168201915b5050505060068301805460408051602060026001851615610100026000190190941693909304601f8101849004840282018401909252818152949594935090830182828015612ebd5780601f10612e9257610100808354040283529160200191612ebd565b820191906000526020600020905b815481529060010190602001808311612ea057829003601f168201915b5050505050905089565b612ecf61314f565b50604080516101208101825233808252602080830186815283850186905260006060850181905260808501819052600160a086018190528651808501885282815260c08701528651808501885282815260e0870152865180850188528281526101008701529381526009835294909420835181546001600160a01b0319166001600160a01b0390911617815593518051939485949093612f7493908501920190613081565b5060408201518051612f90916002840191602090910190613081565b506060820151600382018054608085015160a08601511515620100000262ff0000199115156101000261ff001995151560ff199094169390931794909416919091171691909117905560c08201518051612ff4916004840191602090910190613081565b5060e08201518051613010916005840191602090910190613081565b50610100820151805161302d916006840191602090910190613081565b505060138054600181810183556000929092527f66de8ffda797e3de9c05e8fc57b3bf0ec28a930d40b0d285d93c06501cf6a0900180546001600160a01b0319163317905560068054909101905550505050565b828054600181600116156101000203166002900490600052602060002090601f016020900481019282601f106130c257805160ff19168380011785556130ef565b828001600101855582156130ef579182015b828111156130ef5782518255916020019190600101906130d4565b506130fb9291506131aa565b5090565b6040518060800160405280600081526020016060815260200160608152602001600081525090565b6040518060800160405280600081526020016060815260200160608152602001606081525090565b60405180610120016040528060006001600160a01b0316815260200160608152602001606081526020016000151581526020016000151581526020016000151581526020016060815260200160608152602001606081525090565b5b808211156130fb57600081556001016131ab56fe43616c6c6572206973206e6f74206f7267616e697a6572000000000000000000456c656374696f6e20686173206e6f74206e6f74206265656e2073746172746564a26469706673582212204e2c436bae7be6d8241a3730efcb5695c570ab607b181d51e1d069319495f74e64736f6c63430007000033",
  "linkReferences": {},
  "deployedLinkReferences": {}
}