{
  "_format": "hh-sol-artifact-1",
  "contractName": "Election",
  "sourceName": "contracts/election.sol",
  "abi": [
    {
      "inputs": [],
      "stateMutability": "nonpayable",
      "type": "constructor"
    },
    {
      "inputs": [
        {
          "internalType": "uint256",
          "name": "",
          "type": "uint256"
        }
      ],
      "name": "Ballots",
      "outputs": [
        {
          "internalType": "uint256",
          "name": "choiceCode",
          "type": "uint256"
        },
        {
          "internalType": "string",
          "name": "secretKey",
          "type": "string"
        },
        {
          "internalType": "string",
          "name": "signedVote",
          "type": "string"
        }
      ],
      "stateMutability": "view",
      "type": "function"
    },
    {
      "inputs": [
        {
          "internalType": "address",
          "name": "",
          "type": "address"
        }
      ],
      "name": "Voters",
      "outputs": [
        {
          "internalType": "address",
          "name": "voterAddress",
          "type": "address"
        },
        {
          "internalType": "string",
          "name": "name",
          "type": "string"
        },
        {
          "internalType": "string",
          "name": "phone",
          "type": "string"
        },
        {
          "internalType": "string",
          "name": "votingPassword",
          "type": "string"
        },
        {
          "internalType": "bool",
          "name": "eligible",
          "type": "bool"
        },
        {
          "internalType": "bool",
          "name": "hasVoted",
          "type": "bool"
        },
        {
          "internalType": "bool",
          "name": "isRegistered",
          "type": "bool"
        },
        {
          "internalType": "string",
          "name": "blindedVote",
          "type": "string"
        },
        {
          "internalType": "string",
          "name": "signedBlindedVote",
          "type": "string"
        }
      ],
      "stateMutability": "view",
      "type": "function"
    },
    {
      "inputs": [
        {
          "internalType": "string",
          "name": "_header",
          "type": "string"
        },
        {
          "internalType": "string",
          "name": "_slogan",
          "type": "string"
        }
      ],
      "name": "addCandidate",
      "outputs": [],
      "stateMutability": "nonpayable",
      "type": "function"
    },
    {
      "inputs": [],
      "name": "admin",
      "outputs": [
        {
          "internalType": "address",
          "name": "",
          "type": "address"
        }
      ],
      "stateMutability": "view",
      "type": "function"
    },
    {
      "inputs": [
        {
          "internalType": "string",
          "name": "",
          "type": "string"
        }
      ],
      "name": "blindedVotes",
      "outputs": [
        {
          "internalType": "address",
          "name": "",
          "type": "address"
        }
      ],
      "stateMutability": "view",
      "type": "function"
    },
    {
      "inputs": [],
      "name": "candidateCount",
      "outputs": [
        {
          "internalType": "uint256",
          "name": "",
          "type": "uint256"
        }
      ],
      "stateMutability": "view",
      "type": "function"
    },
    {
      "inputs": [
        {
          "internalType": "uint256",
          "name": "",
          "type": "uint256"
        }
      ],
      "name": "candidateDetails",
      "outputs": [
        {
          "internalType": "uint256",
          "name": "candidateId",
          "type": "uint256"
        },
        {
          "internalType": "string",
          "name": "name",
          "type": "string"
        },
        {
          "internalType": "string",
          "name": "slogan",
          "type": "string"
        },
        {
          "internalType": "uint256",
          "name": "voteCount",
          "type": "uint256"
        }
      ],
      "stateMutability": "view",
      "type": "function"
    },
    {
      "inputs": [],
      "name": "electionDetails",
      "outputs": [
        {
          "internalType": "string",
          "name": "adminName",
          "type": "string"
        },
        {
          "internalType": "string",
          "name": "adminEmail",
          "type": "string"
        },
        {
          "internalType": "string",
          "name": "adminTitle",
          "type": "string"
        },
        {
          "internalType": "string",
          "name": "electionTitle",
          "type": "string"
        },
        {
          "internalType": "string",
          "name": "organizationTitle",
          "type": "string"
        }
      ],
      "stateMutability": "view",
      "type": "function"
    },
    {
      "inputs": [],
      "name": "end",
      "outputs": [
        {
          "internalType": "bool",
          "name": "",
          "type": "bool"
        }
      ],
      "stateMutability": "view",
      "type": "function"
    },
    {
      "inputs": [],
      "name": "endElection",
      "outputs": [],
      "stateMutability": "nonpayable",
      "type": "function"
    },
    {
      "inputs": [],
      "name": "getAdmin",
      "outputs": [
        {
          "internalType": "address",
          "name": "",
          "type": "address"
        }
      ],
      "stateMutability": "view",
      "type": "function"
    },
    {
      "inputs": [],
      "name": "getAdminEmail",
      "outputs": [
        {
          "internalType": "string",
          "name": "",
          "type": "string"
        }
      ],
      "stateMutability": "view",
      "type": "function"
    },
    {
      "inputs": [],
      "name": "getAdminName",
      "outputs": [
        {
          "internalType": "string",
          "name": "",
          "type": "string"
        }
      ],
      "stateMutability": "view",
      "type": "function"
    },
    {
      "inputs": [],
      "name": "getAdminTitle",
      "outputs": [
        {
          "internalType": "string",
          "name": "",
          "type": "string"
        }
      ],
      "stateMutability": "view",
      "type": "function"
    },
    {
      "inputs": [],
      "name": "getElectionTitle",
      "outputs": [
        {
          "internalType": "string",
          "name": "",
          "type": "string"
        }
      ],
      "stateMutability": "view",
      "type": "function"
    },
    {
      "inputs": [],
      "name": "getEnd",
      "outputs": [
        {
          "internalType": "bool",
          "name": "",
          "type": "bool"
        }
      ],
      "stateMutability": "view",
      "type": "function"
    },
    {
      "inputs": [],
      "name": "getOrganizationTitle",
      "outputs": [
        {
          "internalType": "string",
          "name": "",
          "type": "string"
        }
      ],
      "stateMutability": "view",
      "type": "function"
    },
    {
      "inputs": [],
      "name": "getOrganizerAddress",
      "outputs": [
        {
          "internalType": "address",
          "name": "",
          "type": "address"
        }
      ],
      "stateMutability": "view",
      "type": "function"
    },
    {
      "inputs": [],
      "name": "getOrganizerSigniturePublicKey",
      "outputs": [
        {
          "internalType": "string",
          "name": "",
          "type": "string"
        }
      ],
      "stateMutability": "view",
      "type": "function"
    },
    {
      "inputs": [],
      "name": "getStart",
      "outputs": [
        {
          "internalType": "bool",
          "name": "",
          "type": "bool"
        }
      ],
      "stateMutability": "view",
      "type": "function"
    },
    {
      "inputs": [],
      "name": "getTotalBallots",
      "outputs": [
        {
          "internalType": "uint256",
          "name": "",
          "type": "uint256"
        }
      ],
      "stateMutability": "view",
      "type": "function"
    },
    {
      "inputs": [],
      "name": "getTotalCandidate",
      "outputs": [
        {
          "internalType": "uint256",
          "name": "",
          "type": "uint256"
        }
      ],
      "stateMutability": "view",
      "type": "function"
    },
    {
      "inputs": [],
      "name": "getTotalVoter",
      "outputs": [
        {
          "internalType": "uint256",
          "name": "",
          "type": "uint256"
        }
      ],
      "stateMutability": "view",
      "type": "function"
    },
    {
      "inputs": [],
      "name": "organizer",
      "outputs": [
        {
          "internalType": "address",
          "name": "organizerAddress",
          "type": "address"
        },
        {
          "internalType": "string",
          "name": "signiturePublicKey",
          "type": "string"
        }
      ],
      "stateMutability": "view",
      "type": "function"
    },
    {
      "inputs": [
        {
          "internalType": "string",
          "name": "_name",
          "type": "string"
        },
        {
          "internalType": "string",
          "name": "_phone",
          "type": "string"
        },
        {
          "internalType": "string",
          "name": "_votingPassword",
          "type": "string"
        }
      ],
      "name": "registerAsVoter",
      "outputs": [],
      "stateMutability": "nonpayable",
      "type": "function"
    },
    {
      "inputs": [
        {
          "internalType": "string",
          "name": "_blindedVote",
          "type": "string"
        }
      ],
      "name": "requestBlindSig",
      "outputs": [],
      "stateMutability": "nonpayable",
      "type": "function"
    },
    {
      "inputs": [
        {
          "internalType": "string",
          "name": "_adminName",
          "type": "string"
        },
        {
          "internalType": "string",
          "name": "_adminEmail",
          "type": "string"
        },
        {
          "internalType": "string",
          "name": "_adminTitle",
          "type": "string"
        },
        {
          "internalType": "string",
          "name": "_electionTitle",
          "type": "string"
        },
        {
          "internalType": "string",
          "name": "_organizationTitle",
          "type": "string"
        },
        {
          "internalType": "address",
          "name": "_organizerAddress",
          "type": "address"
        }
      ],
      "name": "setElectionDetails",
      "outputs": [],
      "stateMutability": "nonpayable",
      "type": "function"
    },
    {
      "inputs": [
        {
          "internalType": "string",
          "name": "_publicKey",
          "type": "string"
        }
      ],
      "name": "setSigniturePublicKey",
      "outputs": [],
      "stateMutability": "nonpayable",
      "type": "function"
    },
    {
      "inputs": [
        {
          "internalType": "string",
          "name": "_sig",
          "type": "string"
        }
      ],
      "name": "signitureIsUsed",
      "outputs": [
        {
          "internalType": "bool",
          "name": "",
          "type": "bool"
        }
      ],
      "stateMutability": "view",
      "type": "function"
    },
    {
      "inputs": [],
      "name": "start",
      "outputs": [
        {
          "internalType": "bool",
          "name": "",
          "type": "bool"
        }
      ],
      "stateMutability": "view",
      "type": "function"
    },
    {
      "inputs": [
        {
          "internalType": "string",
          "name": "",
          "type": "string"
        }
      ],
      "name": "usedSignatures",
      "outputs": [
        {
          "internalType": "bool",
          "name": "",
          "type": "bool"
        }
      ],
      "stateMutability": "view",
      "type": "function"
    },
    {
      "inputs": [
        {
          "internalType": "string",
          "name": "_signedVote",
          "type": "string"
        },
        {
          "internalType": "uint256",
          "name": "_choiceCode",
          "type": "uint256"
        }
      ],
      "name": "validBallots",
      "outputs": [],
      "stateMutability": "nonpayable",
      "type": "function"
    },
    {
      "inputs": [
        {
          "internalType": "bool",
          "name": "_verifedStatus",
          "type": "bool"
        },
        {
          "internalType": "address",
          "name": "voterAddress",
          "type": "address"
        }
      ],
      "name": "verifyVoter",
      "outputs": [],
      "stateMutability": "nonpayable",
      "type": "function"
    },
    {
      "inputs": [
        {
          "internalType": "uint256",
          "name": "_choiceCode",
          "type": "uint256"
        },
        {
          "internalType": "string",
          "name": "_secretKey",
          "type": "string"
        },
        {
          "internalType": "string",
          "name": "_signedVote",
          "type": "string"
        }
      ],
      "name": "vote",
      "outputs": [],
      "stateMutability": "nonpayable",
      "type": "function"
    },
    {
      "inputs": [
        {
          "internalType": "uint256",
          "name": "",
          "type": "uint256"
        }
      ],
      "name": "voters",
      "outputs": [
        {
          "internalType": "address",
          "name": "",
          "type": "address"
        }
      ],
      "stateMutability": "view",
      "type": "function"
    },
    {
      "inputs": [
        {
          "internalType": "address",
          "name": "_voter",
          "type": "address"
        },
        {
          "internalType": "string",
          "name": "blindSig",
          "type": "string"
        }
      ],
      "name": "writeBlindSig",
      "outputs": [],
      "stateMutability": "nonpayable",
      "type": "function"
    }
  ],
  "bytecode": "0x608060405234801561001057600080fd5b50600080546001600160a01b03191633179055612bd5806100326000396000f3fe608060405234801561001057600080fd5b506004361061021c5760003560e01c8063831318f111610125578063be9a6555116100ad578063ea09cdb61161007c578063ea09cdb61461120a578063ef92bcab146112ae578063efbe1c1c146113b0578063f851a440146113b8578063fdedaa8a146113c05761021c565b8063be9a6555146111d5578063c5292c67146111dd578063da58c7d9146111e5578063e173730c146112025761021c565b8063a5327424116100f4578063a532742414610d2e578063a9a981a314610ff1578063b108475914610ff9578063b4c2b80e14611129578063be081b6f146111cd5761021c565b8063831318f114610c6257806397d41b3514610c6a5780639f05a36d14610c72578063a1c6cfbf14610c7a5761021c565b8063506b8e0a116101a857806364d198a11161017757806364d198a1146109725780636d2f69661461097a5780636e9960c314610b925780637be9857214610bb65780637ffbd1b214610bbe5761021c565b8063506b8e0a146107a357806359f78468146107d157806361203265146107d95780636247e532146108695761021c565b80631b9f4833116101ef5780631b9f48331461050e578063252f5108146105c657806326541b561461066a578063317b1a3314610793578063483431751461079b5761021c565b80630b93400e146102215780630e2354cf1461023b5780630ec74bf7146102b85780631689a44c14610360575b600080fd5b610229611621565b60408051918252519081900360200190f35b610243611627565b6040805160208082528351818301528351919283929083019185019080838360005b8381101561027d578181015183820152602001610265565b50505050905090810190601f1680156102aa5780820380516001836020036101000a031916815260200191505b509250505060405180910390f35b61035e600480360360408110156102ce57600080fd5b810190602081018135600160201b8111156102e857600080fd5b8201836020820111156102fa57600080fd5b803590602001918460018302840111600160201b8311171561031b57600080fd5b91908080601f01602080910402602001604051908101604052809392919081815260200183838082843760009201919091525092955050913592506116bd915050565b005b61035e6004803603606081101561037657600080fd5b810190602081018135600160201b81111561039057600080fd5b8201836020820111156103a257600080fd5b803590602001918460018302840111600160201b831117156103c357600080fd5b91908080601f0160208091040260200160405190810160405280939291908181526020018383808284376000920191909152509295949360208101935035915050600160201b81111561041557600080fd5b82018360208201111561042757600080fd5b803590602001918460018302840111600160201b8311171561044857600080fd5b91908080601f0160208091040260200160405190810160405280939291908181526020018383808284376000920191909152509295949360208101935035915050600160201b81111561049a57600080fd5b8201836020820111156104ac57600080fd5b803590602001918460018302840111600160201b831117156104cd57600080fd5b91908080601f01602080910402602001604051908101604052809392919081815260200183838082843760009201919091525092955061179e945050505050565b6105b26004803603602081101561052457600080fd5b810190602081018135600160201b81111561053e57600080fd5b82018360208201111561055057600080fd5b803590602001918460018302840111600160201b8311171561057157600080fd5b91908080601f016020809104026020016040519081016040528093929190818152602001838380828437600092019190915250929550611951945050505050565b604080519115158252519081900360200190f35b6105b2600480360360208110156105dc57600080fd5b810190602081018135600160201b8111156105f657600080fd5b82018360208201111561060857600080fd5b803590602001918460018302840111600160201b8311171561062957600080fd5b91908080601f0160208091040260200160405190810160405280939291908181526020018383808284376000920191909152509295506119bc945050505050565b61035e6004803603604081101561068057600080fd5b810190602081018135600160201b81111561069a57600080fd5b8201836020820111156106ac57600080fd5b803590602001918460018302840111600160201b831117156106cd57600080fd5b91908080601f0160208091040260200160405190810160405280939291908181526020018383808284376000920191909152509295949360208101935035915050600160201b81111561071f57600080fd5b82018360208201111561073157600080fd5b803590602001918460018302840111600160201b8311171561075257600080fd5b91908080601f0160208091040260200160405190810160405280939291908181526020018383808284376000920191909152509295506119dc945050505050565b610229611ac1565b610243611ac7565b61035e600480360360408110156107b957600080fd5b508035151590602001356001600160a01b0316611b28565b61035e611bac565b6107e1611c18565b60405180836001600160a01b0316815260200180602001828103825283818151815260200191508051906020019080838360005b8381101561082d578181015183820152602001610815565b50505050905090810190601f16801561085a5780820380516001836020036101000a031916815260200191505b50935050505060405180910390f35b6108866004803603602081101561087f57600080fd5b5035611cb5565b604051808581526020018060200180602001848152602001838103835286818151815260200191508051906020019080838360005b838110156108d35781810151838201526020016108bb565b50505050905090810190601f1680156109005780820380516001836020036101000a031916815260200191505b50838103825285518152855160209182019187019080838360005b8381101561093357818101518382015260200161091b565b50505050905090810190601f1680156109605780820380516001836020036101000a031916815260200191505b50965050505050505060405180910390f35b610229611df4565b610982611dfa565b60405180806020018060200180602001806020018060200186810386528b818151815260200191508051906020019080838360005b838110156109cf5781810151838201526020016109b7565b50505050905090810190601f1680156109fc5780820380516001836020036101000a031916815260200191505b5086810385528a5181528a516020918201918c019080838360005b83811015610a2f578181015183820152602001610a17565b50505050905090810190601f168015610a5c5780820380516001836020036101000a031916815260200191505b5086810384528951815289516020918201918b019080838360005b83811015610a8f578181015183820152602001610a77565b50505050905090810190601f168015610abc5780820380516001836020036101000a031916815260200191505b5086810383528851815288516020918201918a019080838360005b83811015610aef578181015183820152602001610ad7565b50505050905090810190601f168015610b1c5780820380516001836020036101000a031916815260200191505b50868103825287518152875160209182019189019080838360005b83811015610b4f578181015183820152602001610b37565b50505050905090810190601f168015610b7c5780820380516001836020036101000a031916815260200191505b509a505050505050505050505060405180910390f35b610b9a6120dc565b604080516001600160a01b039092168252519081900360200190f35b6102436120eb565b61035e60048036036020811015610bd457600080fd5b810190602081018135600160201b811115610bee57600080fd5b820183602082011115610c0057600080fd5b803590602001918460018302840111600160201b83111715610c2157600080fd5b91908080601f016020809104026020016040519081016040528093929190818152602001838380828437600092019190915250929550612149945050505050565b6102436121b9565b610b9a61221a565b6105b2612229565b61035e60048036036040811015610c9057600080fd5b6001600160a01b038235169190810190604081016020820135600160201b811115610cba57600080fd5b820183602082011115610ccc57600080fd5b803590602001918460018302840111600160201b83111715610ced57600080fd5b91908080601f016020809104026020016040519081016040528093929190818152602001838380828437600092019190915250929550612237945050505050565b61035e600480360360c0811015610d4457600080fd5b810190602081018135600160201b811115610d5e57600080fd5b820183602082011115610d7057600080fd5b803590602001918460018302840111600160201b83111715610d9157600080fd5b91908080601f0160208091040260200160405190810160405280939291908181526020018383808284376000920191909152509295949360208101935035915050600160201b811115610de357600080fd5b820183602082011115610df557600080fd5b803590602001918460018302840111600160201b83111715610e1657600080fd5b91908080601f0160208091040260200160405190810160405280939291908181526020018383808284376000920191909152509295949360208101935035915050600160201b811115610e6857600080fd5b820183602082011115610e7a57600080fd5b803590602001918460018302840111600160201b83111715610e9b57600080fd5b91908080601f0160208091040260200160405190810160405280939291908181526020018383808284376000920191909152509295949360208101935035915050600160201b811115610eed57600080fd5b820183602082011115610eff57600080fd5b803590602001918460018302840111600160201b83111715610f2057600080fd5b91908080601f0160208091040260200160405190810160405280939291908181526020018383808284376000920191909152509295949360208101935035915050600160201b811115610f7257600080fd5b820183602082011115610f8457600080fd5b803590602001918460018302840111600160201b83111715610fa557600080fd5b91908080601f016020809104026020016040519081016040528093929190818152602001838380828437600092019190915250929550505090356001600160a01b031691506122c49050565b610229612401565b61035e6004803603606081101561100f57600080fd5b81359190810190604081016020820135600160201b81111561103057600080fd5b82018360208201111561104257600080fd5b803590602001918460018302840111600160201b8311171561106357600080fd5b91908080601f0160208091040260200160405190810160405280939291908181526020018383808284376000920191909152509295949360208101935035915050600160201b8111156110b557600080fd5b8201836020820111156110c757600080fd5b803590602001918460018302840111600160201b831117156110e857600080fd5b91908080601f016020809104026020016040519081016040528093929190818152602001838380828437600092019190915250929550612407945050505050565b610b9a6004803603602081101561113f57600080fd5b810190602081018135600160201b81111561115957600080fd5b82018360208201111561116b57600080fd5b803590602001918460018302840111600160201b8311171561118c57600080fd5b91908080601f016020809104026020016040519081016040528093929190818152602001838380828437600092019190915250929550612488945050505050565b6102436124ae565b6105b261250f565b6105b2612518565b610b9a600480360360208110156111fb57600080fd5b5035612521565b610243612548565b61035e6004803603602081101561122057600080fd5b810190602081018135600160201b81111561123a57600080fd5b82018360208201111561124c57600080fd5b803590602001918460018302840111600160201b8311171561126d57600080fd5b91908080601f0160208091040260200160405190810160405280939291908181526020018383808284376000920191909152509295506125a9945050505050565b6112cb600480360360208110156112c457600080fd5b50356125ff565b604051808481526020018060200180602001838103835285818151815260200191508051906020019080838360005b838110156113125781810151838201526020016112fa565b50505050905090810190601f16801561133f5780820380516001836020036101000a031916815260200191505b50838103825284518152845160209182019186019080838360005b8381101561137257818101518382015260200161135a565b50505050905090810190601f16801561139f5780820380516001836020036101000a031916815260200191505b509550505050505060405180910390f35b6105b2612738565b610b9a612746565b6113e6600480360360208110156113d657600080fd5b50356001600160a01b0316612755565b604051808a6001600160a01b03168152602001806020018060200180602001891515815260200188151581526020018715158152602001806020018060200186810386528e818151815260200191508051906020019080838360005b8381101561145a578181015183820152602001611442565b50505050905090810190601f1680156114875780820380516001836020036101000a031916815260200191505b5086810385528d5181528d516020918201918f019080838360005b838110156114ba5781810151838201526020016114a2565b50505050905090810190601f1680156114e75780820380516001836020036101000a031916815260200191505b5086810384528c5181528c516020918201918e019080838360005b8381101561151a578181015183820152602001611502565b50505050905090810190601f1680156115475780820380516001836020036101000a031916815260200191505b5086810383528851815288516020918201918a019080838360005b8381101561157a578181015183820152602001611562565b50505050905090810190601f1680156115a75780820380516001836020036101000a031916815260200191505b50868103825287518152875160209182019189019080838360005b838110156115da5781810151838201526020016115c2565b50505050905090810190601f1680156116075780820380516001836020036101000a031916815260200191505b509e50505050505050505050505050505060405180910390f35b60045490565b600b8054604080516020601f60026000196101006001881615020190951694909404938401819004810282018101909252828152606093909290918301828280156116b35780601f10611688576101008083540402835291602001916116b3565b820191906000526020600020905b81548152906001019060200180831161169657829003601f168201915b5050505050905090565b6000546001600160a01b03163314611712576040805162461bcd60e51b815260206004820152601360248201527221b0b63632b91034b9903737ba1020b236b4b760691b604482015290519081900360640190fd5b60016009836040518082805190602001908083835b602083106117465780518252601f199092019160209182019101611727565b51815160209384036101000a600019018019909216911617905292019485525060408051948590038201909420805460ff19169515159590951790945550506000928352600690915290206003018054600101905550565b6117a6612a68565b5060408051610120810182523380825260208083018781528385018790526060840186905260006080850181905260a08501819052600160c086018190528651808501885282815260e0870152865180850188528281526101008701529381526007835294909420835181546001600160a01b0319166001600160a01b039091161781559351805193948594909361184393908501920190612ac3565b506040820151805161185f916002840191602090910190612ac3565b506060820151805161187b916003840191602090910190612ac3565b50608082015160048201805460a085015160c08601511515620100000262ff0000199115156101000261ff001995151560ff199094169390931794909416919091171691909117905560e082015180516118df916005840191602090910190612ac3565b5061010082015180516118fc916006840191602090910190612ac3565b505060118054600181810183556000929092527f31ecc21a745e3968a04e9570e4425bc18fa8019c68028196b546d1669c200c680180546001600160a01b031916331790556004805490910190555050505050565b60006009826040518082805190602001908083835b602083106119855780518252601f199092019160209182019101611966565b51815160209384036101000a600019018019909216911617905292019485525060405193849003019092205460ff16949350505050565b805160208183018101805160098252928201919093012091525460ff1681565b6000546001600160a01b03163314611a31576040805162461bcd60e51b815260206004820152601360248201527221b0b63632b91034b9903737ba1020b236b4b760691b604482015290519081900360640190fd5b611a39612b41565b5060408051608081018252600354808252602080830186815283850186905260006060850181905292835260068252939091208251815592518051929384939092611a8b926001850192910190612ac3565b5060408201518051611aa7916002840191602090910190612ac3565b506060919091015160039182015580546001019055505050565b60055490565b600f8054604080516020601f60026000196101006001881615020190951694909404938401819004810282018101909252828152606093909290918301828280156116b35780601f10611688576101008083540402835291602001916116b3565b6001546001600160a01b03163314611b81576040805162461bcd60e51b815260206004820152601760248201527621b0b63632b91034b9903737ba1037b933b0b734bd32b960491b604482015290519081900360640190fd5b6001600160a01b03166000908152600760205260409020600401805460ff1916911515919091179055565b6000546001600160a01b03163314611c01576040805162461bcd60e51b815260206004820152601360248201527221b0b63632b91034b9903737ba1020b236b4b760691b604482015290519081900360640190fd5b6010805460ff1961ff001990911661010017169055565b6001805460028054604080516020610100848816150260001901909316849004601f81018490048402820184019092528181526001600160a01b0390941694939291830182828015611cab5780601f10611c8057610100808354040283529160200191611cab565b820191906000526020600020905b815481529060010190602001808311611c8e57829003601f168201915b5050505050905082565b6006602090815260009182526040918290208054600180830180548651600293821615610100026000190190911692909204601f810186900486028301860190965285825291949293909290830182828015611d525780601f10611d2757610100808354040283529160200191611d52565b820191906000526020600020905b815481529060010190602001808311611d3557829003601f168201915b50505060028085018054604080516020601f6000196101006001871615020190941695909504928301859004850281018501909152818152959695945090925090830182828015611de45780601f10611db957610100808354040283529160200191611de4565b820191906000526020600020905b815481529060010190602001808311611dc757829003601f168201915b5050505050908060030154905084565b60035490565b600b8054604080516020601f60026000196101006001881615020190951694909404938401819004810282018101909252828152918391830182828015611e825780601f10611e5757610100808354040283529160200191611e82565b820191906000526020600020905b815481529060010190602001808311611e6557829003601f168201915b505050505090806001018054600181600116156101000203166002900480601f016020809104026020016040519081016040528092919081815260200182805460018160011615610100020316600290048015611f205780601f10611ef557610100808354040283529160200191611f20565b820191906000526020600020905b815481529060010190602001808311611f0357829003601f168201915b50505060028085018054604080516020601f6000196101006001871615020190941695909504928301859004850281018501909152818152959695945090925090830182828015611fb25780601f10611f8757610100808354040283529160200191611fb2565b820191906000526020600020905b815481529060010190602001808311611f9557829003601f168201915b5050505060038301805460408051602060026001851615610100026000190190941693909304601f81018490048402820184019092528181529495949350908301828280156120425780601f1061201757610100808354040283529160200191612042565b820191906000526020600020905b81548152906001019060200180831161202557829003601f168201915b5050505060048301805460408051602060026001851615610100026000190190941693909304601f81018490048402820184019092528181529495949350908301828280156120d25780601f106120a7576101008083540402835291602001916120d2565b820191906000526020600020905b8154815290600101906020018083116120b557829003601f168201915b5050505050905085565b6000546001600160a01b031690565b60028054604080516020601f60001961010060018716150201909416859004938401819004810282018101909252828152606093909290918301828280156116b35780601f10611688576101008083540402835291602001916116b3565b6001546001600160a01b031633146121a2576040805162461bcd60e51b815260206004820152601760248201527621b0b63632b91034b9903737ba1037b933b0b734bd32b960491b604482015290519081900360640190fd5b80516121b5906002906020840190612ac3565b5050565b600c8054604080516020601f60026000196101006001881615020190951694909404938401819004810282018101909252828152606093909290918301828280156116b35780601f10611688576101008083540402835291602001916116b3565b6001546001600160a01b031690565b601054610100900460ff1690565b6001546001600160a01b03163314612290576040805162461bcd60e51b815260206004820152601760248201527621b0b63632b91034b9903737ba1037b933b0b734bd32b960491b604482015290519081900360640190fd5b6001600160a01b038216600090815260076020908152604090912082516122bf92600690920191840190612ac3565b505050565b6000546001600160a01b03163314612319576040805162461bcd60e51b815260206004820152601360248201527221b0b63632b91034b9903737ba1020b236b4b760691b604482015290519081900360640190fd5b6040805160a0810182528781526020808201889052918101869052606081018590526080810184905287519091600b91612358918391908b0190612ac3565b5060208281015180516123719260018501920190612ac3565b506040820151805161238d916002840191602090910190612ac3565b50606082015180516123a9916003840191602090910190612ac3565b50608082015180516123c5916004840191602090910190612ac3565b5050600180546001600160a01b0319166001600160a01b0393909316929092178255506010805460ff191690911761ff00191690555050505050565b60035481565b61240f612b69565b506040805160608101825284815260208082018581528284018590526005546000908152600a835293909320825181559251805192938493909261245a926001850192910190612ac3565b5060408201518051612476916002840191602090910190612ac3565b50506005805460010190555050505050565b80516020818301810180516008825292820191909301209152546001600160a01b031681565b600d8054604080516020601f60026000196101006001881615020190951694909404938401819004810282018101909252828152606093909290918301828280156116b35780601f10611688576101008083540402835291602001916116b3565b60105460ff1681565b60105460ff1690565b6011818154811061252e57fe5b6000918252602090912001546001600160a01b0316905081565b600e8054604080516020601f60026000196101006001881615020190951694909404938401819004810282018101909252828152606093909290918301828280156116b35780601f10611688576101008083540402835291602001916116b3565b3360009081526007602052604090206004015460ff166125c857600080fd5b33600090815260076020908152604090912060048101805461ff00191661010017905582516121b592600590920191840190612ac3565b600a602090815260009182526040918290208054600180830180548651600293821615610100026000190190911692909204601f81018690048602830186019096528582529194929390929083018282801561269c5780601f106126715761010080835404028352916020019161269c565b820191906000526020600020905b81548152906001019060200180831161267f57829003601f168201915b50505060028085018054604080516020601f600019610100600187161502019094169590950492830185900485028101850190915281815295969594509092509083018282801561272e5780601f106127035761010080835404028352916020019161272e565b820191906000526020600020905b81548152906001019060200180831161271157829003601f168201915b5050505050905083565b601054610100900460ff1681565b6000546001600160a01b031681565b6007602090815260009182526040918290208054600180830180548651600261010094831615949094026000190190911692909204601f81018690048602830186019096528582526001600160a01b039092169492939092908301828280156127ff5780601f106127d4576101008083540402835291602001916127ff565b820191906000526020600020905b8154815290600101906020018083116127e257829003601f168201915b50505060028085018054604080516020601f60001961010060018716150201909416959095049283018590048502810185019091528181529596959450909250908301828280156128915780601f1061286657610100808354040283529160200191612891565b820191906000526020600020905b81548152906001019060200180831161287457829003601f168201915b5050505060038301805460408051602060026001851615610100026000190190941693909304601f81018490048402820184019092528181529495949350908301828280156129215780601f106128f657610100808354040283529160200191612921565b820191906000526020600020905b81548152906001019060200180831161290457829003601f168201915b5050505060048301546005840180546040805160206002610100600186161581026000190190951604601f8101829004820283018201909352828252969760ff808716989487048116975062010000909604909516949390929091908301828280156129ce5780601f106129a3576101008083540402835291602001916129ce565b820191906000526020600020905b8154815290600101906020018083116129b157829003601f168201915b5050505060068301805460408051602060026001851615610100026000190190941693909304601f8101849004840282018401909252818152949594935090830182828015612a5e5780601f10612a3357610100808354040283529160200191612a5e565b820191906000526020600020905b815481529060010190602001808311612a4157829003601f168201915b5050505050905089565b60405180610120016040528060006001600160a01b0316815260200160608152602001606081526020016060815260200160001515815260200160001515815260200160001515815260200160608152602001606081525090565b828054600181600116156101000203166002900490600052602060002090601f016020900481019282601f10612b0457805160ff1916838001178555612b31565b82800160010185558215612b31579182015b82811115612b31578251825591602001919060010190612b16565b50612b3d929150612b8a565b5090565b6040518060800160405280600081526020016060815260200160608152602001600081525090565b60405180606001604052806000815260200160608152602001606081525090565b5b80821115612b3d5760008155600101612b8b56fea264697066735822122082346bf620da7cb0f7cd5de375a0ac62b87f57321dd8b6bb20ae9f10693b6be664736f6c63430007000033",
  "linkReferences": {},
  "deployedLinkReferences": {}
}